:020000040800F2
:1000000058100020BD020008750B0008FB0A00080C
:10001000710B0008CD0900089910000800000000CD
:10002000000000000000000000000000050D0008B6
:10003000490A000800000000B90C0008070D00087C
:10004000D7020008D7020008D7020008D70200082C
:10005000D7020008D7020008D7020008D70200081C
:10006000D7020008D7020008D7020008D70200080C
:10007000D7020008D7020008D7020008D7020008FC
:10008000D7020008D7020008D7020008D7020008EC
:10009000D7020008D7020008D7020008D7020008DC
:1000A000D7020008D7020008D7020008D7020008CC
:1000B000D7020008D7020008D7020008D7020008BC
:1000C000D7020008D7020008D7020008D7020008AC
:1000D000D7020008310E0008D7020008610E0008A0
:1000E000D7020008D7020008D7020008D70200088C
:1000F000D7020008D7020008D7020008D70200087C
:10010000D7020008D7020008D7020008D70200086B
:10011000D7020008D7020008990D0008D70200088E
:10012000D7020008D7020008D7020008D70200084B
:10013000D7020008D7020008D7020008D70200083B
:10014000D7020008D7020008D7020008D70200082B
:10015000D7020008D702000800000000D7020008FC
:10016000D7020008D70200080000000000000000CD
:10017000D7020008D7020008D702000800000000DC
:1001800000000000D7020008D7020008D7020008CC
:10019000D70200080000000000000000000000007E
:1001A000000000000000000000000000D70200086E
:1001B000D702000800000000D7020008000000007D
:1001C000000000000000000000000000000000002F
:1001D0000000000000000000D7020008D70200085D
:1001E000D7020008D7020008D7020008D70200088B
:1001F000D7020008D7020008D7020008D70200087B
:10020000D7020008D7020008D702000800F002F861
:1002100000F044F80AA090E8000C82448344AAF15C
:100220000107DA4501D100F039F8AFF2090EBAE85A
:100230000F0013F0010F18BFFB1A43F0010318471A
:10024000F83E0000183F0000103A24BF78C878C17B
:10025000FAD8520724BF30C830C144BF04680C60CC
:10026000704700000023002400250026103A28BF14
:1002700078C1FBD8520728BF30C148BF0B60704718
:10028000642900F03181732900F059820020704701
:100290001FB503F0A8FA1FBD10B510BD00F06AFA33
:1002A0001146FFF7F5FF02F073F900F088FA03B486
:1002B000FFF7F2FF03BC00F0F7FE0000094880479B
:1002C00009480047FEE7FEE7FEE7FEE7FEE7FEE738
:1002D000FEE7FEE7FEE7FEE704480549054A064B50
:1002E00070470000090D00080D020008580A0020A0
:1002F00058100020580C0020580C0020704753EA7A
:10030000020C00F069802DE9F04B4FF00006002B45
:100310001FBFB3FA83F503FA05F424FA05F65E402D
:1003200012BF1643B2FA82F502FA05F4C5F12005B0
:100330001EBF22FA05FC44EA0C04203556EA044CA0
:100340004FEA144418BF641C4FF000084FF0000936
:10035000904271EB030C39D3002919BFB1FA81F730
:1003600001FA07F6B0FA80F700FA07F6C7F120079E
:100370001EBF20FA07FC46EA0C062037B6FBF4FC49
:10038000A7EB0507103F07F01F0BCBF120060CFA77
:100390000BFB2CFA06F644BFB3460026202FA4BF61
:1003A0005E464FF0000B5BEA060C08BF4FF0010BF6
:1003B00019EB0B09ABFB027C48EB0608C01B06FBE4
:1003C00002CC0BFB03CC71EB0C01C1E70B460246E0
:1003D00041464846BDE8F08B13B54FF000004FF0A2
:1003E0000001AFF30080BDE81C4070470FB4044922
:1003F00010B503AA029800F0A7F910BC5DF814FB31
:10040000680000200FB41CB5074B06AA7B44694660
:100410000090059800F069F90020694600F078F92D
:100420001CBC5DF814FB0000010300002DE9F04145
:100430000E460446002020622046E168884730B31B
:10044000252805D0D4E901219047206A401CF2E715
:10045000E168204600278847050018D0A5F1410033
:10046000192802D820354FF4006732462946204625
:100470002760FFF705FF40B1012804D0F61D26F0E4
:1004800007060836D8E7361DD6E72846DAE7206A99
:10049000BDE8F08170B50C460546012A05D02878E4
:1004A000800600D5EA69002302E0012305E05B1C19
:1004B000934202D2E05C0028F9D1A869E618C01A7C
:1004C000A861286A184428622846AFF3008004E037
:1004D000D5E9012114F8010B9047B442F8D328461E
:1004E000AFF3008070BD00002DE9F0410646002406
:1004F00010687529314616A510D0AFF3008000288A
:1005000002DA404213A507E031688A0701D512A537
:1005100002E0490704D511A5012401E0AFF30080F2
:1005200000210A2206F1240709E0B0FBF2FCB0FB2F
:10053000F2F302FB1C00303078541846491C0028A6
:10054000F3D123462A463046BDE8F04100F06FB8AB
:10055000000000002D0000002B0000002000000023
:1005600030B505460B462A4613F8014B12F8010B2D
:1005700008B1A042F8D01CB1002802D06D1CF1E7F0
:10058000284630BD10B5431C02E010F8011B71B1C4
:100590008107FAD14FF0013202C88C1A8C4314EA59
:1005A000C211F9D0C01A0A0603D0C01E10BDC01A6D
:1005B00010BD0A0401D0801E10BD0902FCD0401EEF
:1005C00010BD10B5203AC0F00B80B1E81850203AA9
:1005D000A0E81850B1E81850A0E81850BFF4F5AFE3
:1005E0005FEA027C24BFB1E81850A0E8185044BF6D
:1005F00018C918C0BDE810405FEA827C24BF51F8DA
:10060000043B40F8043B08BF7047D20728BF31F8CD
:10061000023B48BF11F8012B28BF20F8023B48BF1E
:1006200000F8012B704770477047704770472DE9FD
:10063000F0470D4699469246044600F124080168A9
:10064000880604D5E06921F01001216000E0012056
:10065000A84201DD471B00E00027A1697A1902EBDF
:100660000900081AA0612078C00602D42046AFF322
:100670000080002608E0D4E901211AF8060090471E
:10068000206A401C761C20624E45F4DB2078C006B0
:100690000AD52046AFF3008006E0D4E901213020DE
:1006A0009047206A401C2062381EA7F10107F4DC45
:1006B00007E0D4E9012118F805009047206A401CA2
:1006C0002062281EA5F10105F3DC2046AFF300806F
:1006D0002078000602D50220BDE8F0870120FBE764
:1006E00001694A1C02610878704700B58FB0CDE9F6
:1006F00001310021059105497944CDE903101146E6
:100700006846FFF793FE0FB000BD0000E5FFFFFF56
:100710000A6802F8010B0A60704710B5436913B10B
:10072000AFF3008001E0FFF7B5FE012010BD1278A5
:1007300000F124010A7000224A700122EDE71168DD
:100740004FF0FF32E9E70000074B70B50D467B44E0
:10075000FFF7CBFF0446284600F008F810B14FF031
:10076000FF3070BD204670BDCF170000007B00F049
:1007700080007047754600F02BF8AE4605006946CC
:10078000534620F00700854618B020B5FFF7A4FDBA
:10079000BDE820404FF000064FF000074FF0000882
:1007A0004FF0000B21F00701AC46ACE8C009ACE803
:1007B000C009ACE8C009ACE8C0098D46704710B567
:1007C0000446AFF300802046BDE81040FFF76FBD40
:1007D00000487047F809002000B589B00020059056
:1007E000069007900890324908730121314801F0C2
:1007F000DBF90121304801F0D7F903A801F0A7FB8C
:1008000000208DF810008DF8110002208DF81200E4
:100810008DF81300C002039003A9284801F0A1FB42
:1008200002220C21254801F0D9FB05A801F004F9AA
:10083000089840002249B0FBF1F0401E2149088091
:100840000846028840F2E7311F4802F07DFD002192
:100850001D4802F09DFD00211B4802F094FD01A8F7
:1008600002F0B6FE06208DF8040000208DF8050089
:100870008DF8070001208DF8090001AA0021124817
:1008800002F0CDFD4FF4FA7200210F4802F064FD32
:10089000012200210C4802F09CFD01210A4802F0CF
:1008A000A5FE0021084802F078FD09B000BD000057
:1008B000EC00002003004000010030000004024072
:1008C00040420F006C000020000C004010B50122D7
:1008D0001146052000F05AF810BD000010B5294857
:1008E000007830B12748808818B12648007B01285D
:1008F00000D110BD23484078B0B922488088002834
:100900003EDD20480089401C80B21E49088149888C
:10091000884235DB00211C4802F03FFD00201949C8
:100920000881012048702BE016484078012827D123
:1009300014480089401C80B2124908818988884285
:100940001EDB1048C088002812DD0E484089401C7C
:1009500080B20C494881C988884202DB00200949DD
:1009600008700848007818B9002006498880C0E758
:1009700000200449088148700121034802F00DFD60
:1009800000BFB6E7EC000020000C004070B5044644
:100990000D4616461CB10B48007B012800D170BDE6
:1009A000084844808580C680002006490881488127
:1009B0004870012008700121034802F0EEFC00BFDE
:1009C000EDE70000EC000020000C004000BFFEE757
:1009D00010B504460CB9002010BD012C01D1002037
:1009E000FAE7022C01D10E48F6E7032C01D10020D2
:1009F000F2E7042C01D10020EEE7052C01D1002004
:100A0000EAE7062C01D10020E6E7072C01D10020FF
:100A1000E2E740F22B2103A000F06BF80020DBE7B7
:100A2000CC0100202E2E5C2E2E5C2E2E5C2E2E5CF9
:100A30002E2E5C2E2E5C6273705C6273705F75612B
:100A400072742E6300000000704710B50446214602
:100A5000002000F083FF10BD70B504462046FFF76C
:100A600091FD85B22A462146022000F060FF022255
:100A700002A1104600F05BFF70BD00000D0A0000EF
:100A80002DE9F84307460C4600253846FFF77AFD66
:100A90008046B8F1FF0F02D90020BDE8F883002C92
:100AA00003DD2146032000F0E5FE1EE000F0DAFD44
:100AB000002C05DD032000F03BFD08B1002615E009
:100AC0006946022000F024FF78B19DF80000FFF78E
:100AD000BCFF785D9DF80010884205D1681C85B286
:100AE000454502D1012601E00025DFE700BF304681
:100AF000D3E701B9704700BFFEE700BFFEE72DE96D
:100B0000F0410546082D17DA0026FF27002408E0EB
:100B1000204600F013F810B1701CC6B22746601CC6
:100B2000C4B2082CF4DB012E04D1AF4202D1012063
:100B3000BDE8F0810020FBE70020F9E701460B4803
:100B400050F831000069094B03EBC1039B88184042
:100B500008B9002200E00122044800EBC1008079BE
:100B6000904201D1012070470020FCE7F0370008D7
:100B700000BFFEE77047000010B586B0002002906D
:100B80000390049005900121454801F00DF80121E2
:100B9000444801F009F802A800F04EFF684601F051
:100BA000D6F94FF4E070009000208DF804008DF825
:100BB000050002208DF8060001208DF80700694627
:100BC000394801F0CEF903220621374801F006FA30
:100BD00003220721344801F001FA03220821324898
:100BE00001F0FCF9059840003049B0FBF1F080B20B
:100BF000441E224640F299212D4802F0A5FB002117
:100C00002B4802F0C5FB0021294802F0BCFB294813
:100C100002F0DEFC06202749087000204870C870EA
:100C2000012048710A460021214802F0F8FB40F2F9
:100C30009A2200211E4802F08FFB012200211C484D
:100C400002F0C7FB1B4A0221194802F0E8FB002210
:100C50000221174802F080FB01220221144802F011
:100C6000B8FB144A0421124802F0D9FB40F29A2240
:100C700004210F4802F070FB012204210C4802F00D
:100C8000A8FB01210A4802F0B1FC0121084802F04A
:100C9000A8FC0121064802F080FB06B010BD000050
:100CA00001004400020030000008024000366E01DE
:100CB00000040140000000207047000010B501F062
:100CC0009FFE02F001F8002208210C4801F03AF9D9
:100CD000012240210A4801F035F90A2001F052F8BA
:100CE00000224021064801F02DF90A2001F04AF8BF
:100CF00001224021024801F025F910BD000C0240FC
:100D000000100240704770471F48006840F47000B0
:100D10001D4908601D48006820F00100401C1B4967
:100D2000086000BF19480068C0F340000028F9D0EF
:100D300016480830006820F00300144908310860A4
:100D400000BF124808300068C0F381000028F8D1C5
:100D50000E4800680E4908400C49086000200B4905
:100D6000083108600B48091F086000200749A031BE
:100D700008604FF41F0005490C3108604FF0006017
:100D8000014980390860704788ED00E00038024072
:100D9000FFFFF2FE0230030010B501211D4802F0F2
:100DA00004FB002834D01C480068401C1A49086025
:100DB0001A48006840B119480068401E1749086089
:100DC00010B9012016490870002408E004EB440122
:100DD000144A02EB810000F03FFD601CC4B2042CF9
:100DE000F4DB11480068401C0F49086000F020FD4A
:100DF0000E480078401CC0B20C4908700A2803DB7A
:100E00000020087000F00EFD0121024802F0CAFA2D
:100E100010BD000000100040740000208800002079
:100E20008C0000208C010020700000208D0000202C
:100E300010B50948C068C0F3401060B120210648D1
:100E400002F04DFC38B1044802F03CFC0446214657
:100E5000024802F03BFC10BD001001400048004079
:100E600010B5024800F02AF810BD0000CC010020A7
:100E700070B504460D46012000F013F9668B002082
:100E800000F00FF90EB9002070BD218BA068405C06
:100E90002870012000F005F9208B401C80B22083CF
:100EA000E189884201DB00202083608B401E608343
:100EB000002000F0F6F80120E6E7000070B50446D7
:100EC000206805682068C068C0F34010F8B105F0DC
:100ED0002000E0B1206802F0F5FBC6B2E18AA0680C
:100EE0004654E08A401C80B2E082E189884201DBFE
:100EF0000020E082608BE189884202DA608B401C2E
:100F00006083606A10B13046616A884700BF20681C
:100F1000C068C0F3C01028B305F0800010B3A08AE9
:100F200058B900222549206802F038FC01222349E3
:100F3000491E206802F032FC14E0012084F82800E9
:100F4000638A6268D15C206802F0C0FB608A401C42
:100F500080B26082A189884201DB00206082A08A81
:100F6000401EA08205F0400030B32068C068C0F386
:100F7000801008B3A08A68B900221049491E206871
:100F800002F00CFC206A08B1206A8047002084F837
:100F9000280011E0638A6268D15C206802F096FB49
:100FA000608A401C80B26082A189884201DB0020F7
:100FB0006082A08A401EA08270BD000007000C0065
:100FC000F8B504460E46174600253AE01FE001201A
:100FD00000F067F8A08A0090002000F062F8A08975
:100FE000BDF80010884200DD12E0A089BDF80010B5
:100FF00088420BD12068C068C0F3C01030B92068A7
:10100000C06820F0800080302168C86000BFDEE743
:1010100000BF705D228A61688854012000F041F8A9
:10102000208A401C80B22082A189884201DB0020F6
:101030002082A08A401CA082002000F032F8681CA8
:1010400085B2BD42C2DB2068C06820F0400040305D
:101050002168C860F8BD00000B480C4908600C48C6
:1010600048600C4888604FF480608881C881002007
:1010700008824882C882088348838882C8610862DF
:10108000486281F82800704700480040CC010020E9
:10109000F8010020F805002000BFFEE780F310886B
:1010A000704780F31088704700BF70470B78426824
:1010B00063F3082242604B78826863F341028260E6
:1010C0008B78826863F3CB228260CA78521EC36A2F
:1010D00062F31753C3627047002101704170817041
:1010E0000121C1707047816821F0080108318160D9
:1010F000704701468868C0F3C00008B101207047FE
:101100000020FCE7816821F00401091D816070471F
:1011100001468868C0F3800008B1012070470020B4
:10112000FCE7000002782649096862F30401244ABA
:10113000116042782349D1F8041362F31341204A25
:101140001160817801F0040149B11146096821F06C
:10115000805101F180511B4AC2F8041306E018497E
:10116000096821F08051174AC2F804138178144AA3
:10117000126861F38F3212490A60C2781149D1F8BE
:10118000041362F34D310E4A116002790D49D1F812
:10119000041362F30B210A4A116042790949D1F81C
:1011A000041362F3D751064A116082790549D1F8D8
:1011B000041362F39651034AC2F804137047000007
:1011C0000423014000200140002101704170817022
:1011D000C1700171417181717047000000B585B027
:1011E00001214FF4401000F0DFFC03A800F0AFFE37
:1011F00003208DF812000120039003A9394800F064
:10120000B0FE0121384800F0CFFC00221146122028
:1012100001F038FA01A8FFF7D7FF00208DF804008D
:1012200002208DF8050000208DF806008DF80700DB
:101230008DF808008DF809008DF80A0001A8FFF765
:1012400071FF6846FFF748FF01208DF8000000207D
:101250008DF801008DF8020001208DF80300694629
:101260002248FFF723FF0021204800F0DFF8072382
:10127000012200211D4800F062F8002211461B489F
:1012800000F0B5F80021194800F032F800211748A5
:1012900000F033F80121154800F04CF801229106C6
:1012A000124800F03CF80121104800F02BF800BF74
:1012B00040210E4800F02BF80028F9D00B48FFF72A
:1012C00012FF00BF0948FFF714FF0028FAD10748B2
:1012D000FFF718FF00BF0548FFF71AFF0028FAD1F3
:1012E00005B000BD0000024008004400002001409D
:1012F000826861F3082282607047826861F3492244
:1013000082607047826861F3000282607047024623
:10131000002013680B4003B900E001207047012A48
:1013200003D143680B43436003E012B943688B4326
:1013300043607047826861F38A228260704770B5AB
:1013400004460A290CDA206901EB41060725B5405D
:10135000A84301EB410503FA05F5284320610FE09E
:10136000E068A1F10A0505EB45060725B540A8434D
:10137000A1F10A0505EB450503FA05F52843E060F0
:101380000D2A10DBE06AA2F10D0505EB85061F258D
:10139000B540A843A2F10D0505EB850501FA05F559
:1013A0002843E0621EE0072A0EDB206BD51F05EB09
:1013B00085061F25B540A843D51F05EB850501FA15
:1013C00005F5284320630DE0606B551E05EB85068F
:1013D0001F25B540A843551E05EB850501FA05F507
:1013E0002843606370BD0146C86C80B270470F2906
:1013F0000ADD836823F0004303F1004383608368C0
:1014000061F31B63836007E0836823F0004383601C
:10141000836861F31B638360836862F31D73836079
:101420007047826861F39E7282607047426861F320
:10143000196242607047000010B501210648FFF7AD
:10144000F0FF00BF02210448FFF761FF0028F9D038
:101450000148FFF7C8FF10BD002001401CB504463D
:101460000F4951F82400012100F09EFB684600F06E
:101470006EFD01208DF8070000208DF8040001208A
:101480008DF80600074830F81400009000208DF811
:101490000500054951F82400694600F062FD1CBDB5
:1014A000540000204C00002040000020022800DDF5
:1014B0007047064931F8101031B1044931F8101065
:1014C000034A52F82020916100BFF1E74C00002050
:1014D00040000020022800DD7047064931F8101056
:1014E00031B1044931F81010034A52F820209162BA
:1014F00000BFF1E74C00002040000020022800DD82
:101500007047094931F8101059B1084951F82010B5
:101510004969054A32F810205140044A52F8202007
:10152000516100BFECE700004C00002040000020AB
:101530000146042901DB0020704701EB4100084A05
:1015400002EB80004078012808D1002001EB410225
:10155000034B03EB820250700120EDE70020EBE724
:101560008C01002070B50546304800EB0514284674
:10157000FFF7C5FA00283ED02079052802DA0520B9
:10158000207152E020790A2803DA2079401C20716A
:101590004BE0A07A38B90120A07205EB4501491C47
:1015A000C8B200F02FF9208900283EDDE0882189AB
:1015B00088420DDAE088401C80B2E08021898842B0
:1015C00033D105EB4501C91CC8B200F01BF92CE072
:1015D000E07A002829DD207B401CC0B22073E17A2C
:1015E000884222DB0020207305EB4501491CC8B26C
:1015F00000F008F919E02079052802DD05202071A6
:1016000010E0207918B12079401E20710AE0A07AFC
:10161000012807D10020A07205EB4501891CC8B242
:1016200000F0F0F80020E080207370BDFC00002086
:101630000B48807A0A4AD27A904201D10020704742
:101640000748807A064A115C1046807A401CC0B276
:1016500090720A2801DB002090720846EFE7000034
:101660007C010020704710B501F02EFC00F06EFFE9
:1016700000F06CFBFFF7B2FD00F017F800F08CF8FB
:101680004FF4E13001F0B8FFFFF7A6F800F0A6F83C
:101690000020FFF7E3FE0120FFF7E0FE0020FFF748
:1016A00005FF0120FFF702FF10BD10B500F038F86C
:1016B00000F002F810BD00001CB5684600F047FCC1
:1016C0000121154800F070FA01211348801C00F038
:1016D0006BFA01211048C01C00F066FA01208DF859
:1016E000070000208DF804008DF8060002208DF818
:1016F000050000240CE0094800EBC400808800903D
:10170000064951F83400694600F02BFC601CC4B255
:10171000082CF0DB1CBD000001003000F037000891
:1017200010B500201A498872C8720873002418E0A6
:101730006420184901EB041108810220154901EBCE
:10174000041108710020134901EB0411887211493A
:1017500001EB0411C8720F4901EB04110873601CFE
:10176000C4B2082CE4DB06226421002000F062F8F9
:1017700006226421012000F05DF806226421022087
:1017800000F058F806226421032000F053F810BD41
:101790007C010020FC00002010B5002416E0002091
:1017A00004EB44010C4A02EB8101486004EB440164
:1017B00002EB8101886004EB440102EB8101487077
:1017C00004EB440102F82100601CC4B2042CE6DBE7
:1017D00001F054FC10BD00008C01002010B5FFF793
:1017E0003BFC4FF4E13000F031FB10BD10B500249C
:1017F00004E02046FFF7B6FE601CC4B2082CF8DBFC
:1018000010BD00000649C97A054A50541146C97AEC
:10181000491CC9B2D1720A2901DB0021D17270477B
:101820007C01002010B5FFF7E1FFFFF757F810BD6E
:101830007047000010B5074B03EB00131981054BEF
:1018400003EB0013DA720023024C04EB0014237341
:1018500010BD0000FC000020416851B14168491EE4
:10186000416031B9012141700178012901D18168BC
:101870004160704770B504460D46042C06DB114AE2
:1018800011A11AA0FEF7B2FD00BFFEE70120FFF78D
:1018900005FC04EB44001D4901EB8000456004EBAE
:1018A000440001EB80008560002004EB4401174AEE
:1018B00002EB8101487004EB440102F82100FFF7BC
:1018C000EDFB70BD303800082E2E5C2E2E5C2E2EC7
:1018D0005C2E2E5C2E2E5C2E2E5C6273705C62730E
:1018E000705F74696D65722E630000004572726FDF
:1018F000723A2066696C652025732C2066756E63CC
:1019000074696F6E20257328290D0A008C01002050
:1019100070B505460E462846FFF75AF804460CB93E
:10192000002070BD31462046FFF7A2FAF9E72DE905
:10193000F04105460E4617462846FFF749F804468B
:101940000CB9BDE8F081E06908B1E06980473A462A
:1019500031462046FFF734FB00BFF2E713B50446DB
:10196000012201A92046FFF7E2FF1CBD03490968D7
:1019700060F30711014A1160704700000838024007
:101980000349096860F38C21014A11607047000027
:10199000083802400349096860F34F31014A116079
:1019A0007047000008380240012807D1074909683C
:1019B00021F030013031054A116005E00349096822
:1019C00021F03001014A116070470000A438024044
:1019D00005282BD2DFE800F0030A11182100154A70
:1019E000126861F30002134B1A6020E0114A12687A
:1019F00061F310420F4B1A6019E00E4A126861F34E
:101A000018620C4B1A6012E00A4A7032126861F3D5
:101A10000002084B70331A6009E0064A74321268FB
:101A200061F30002034B74331A6000E000BF00BF93
:101A300070470000003802402DE9FE4F04464FF089
:101A40000009CA46CB4600200290019000250026DE
:101A500000F074F90090009820B1012812D00228FB
:101A60003FD112E031480068C0F3803038B12F48D0
:101A70000068C0F3003010B12D48206001E02D480F
:101A8000206031E02B4820602EE028489C38006818
:101A9000C0F38050029025489C380068C0F3881934
:101AA00022489C38006800F00F0A20489C380068E3
:101AB000C0F30240204911F800B0029810B91D4847
:101AC000019001E01B4801900AFB0BFC0198A0FB70
:101AD00009700146624600233846FEF710FC20607C
:101AE00002E01448206000BF00BF1048983800682A
:101AF000C0F303151148465D2068F04060600B4854
:101B000098380068C0F382250D48465D6068F04053
:101B1000E060064898380068C0F342350948465DE1
:101B20006068F040A060BDE8FE8F0000A038024071
:101B3000006CDC0200127A001B410008FB40000828
:101B40000B4100081341000810B501460020094B65
:101B500003EB1142D2F8002801F01F040123A34037
:101B60001A4001F01F040123A3409A4200D000E074
:101B7000012010BD0030024030B50024002500E0F7
:101B8000641C1120FFF7E0FF012802D0B4F5405F8C
:101B9000F6D31120FFF7D8FF012801D0002500E07F
:101BA0000125284630BD000010B501290FD1104B8A
:101BB00003EB1042D2F8002800F01F040123A340D9
:101BC0001A430B4C04EB1043C3F800280EE0084BFB
:101BD00003EB1042D2F8002800F01F040123A340B9
:101BE0009A43034C04EB1043C3F8002810BD0000D7
:101BF0000030024010B501290FD1104B03EB104209
:101C0000D2F8002800F01F040123A3401A430B4C14
:101C100004EB1043C3F800280EE0084B03EB10421E
:101C2000D2F8002800F01F040123A3409A43034C7C
:101C300004EB1043C3F8002810BD00000030024040
:101C400030B538B90F4C246824F4805404F580541E
:101C50000C4D2C600B4C9C3C246860F39654094D51
:101C60009C3D2C602C46246861F38E142C602C461D
:101C7000246862F303042C602C46246863F3124446
:101C80002C6030BDA03802401A48006820F00100E6
:101C9000401C1849086000BF16480068C0F34000A7
:101CA0000028F9D013480830006820F003001149DB
:101CB0000831086000BF0F4808300068C0F3810099
:101CC0000028F8D10B4800680B4908400949086012
:101CD00000200849083108600848091F08600020F2
:101CE0000449A03108604FF41F0002490C3108601C
:101CF0007047000000380240FFFFF2FE0230030090
:101D00000D49096860F301010B4A116000BF00BF73
:101D100000BF00BF00BF00BF00BF00BF00BF00BFCB
:101D200000BF00BF00BF00BF00BF00BF00BF00BFBB
:101D300000BF00BF7047000008380240024800683A
:101D4000C0F38100704700000838024010B504203D
:101D500001F080F9074800680749B0FBF1F0074936
:101D60000860084600684FF47A71484304490860E7
:101D700010BD00009000002040420F0060000020D5
:101D80006400002008B505490968009100BF00996A
:101D90000144024A1268891AF9D508BD7000002072
:101DA00002684BF6EF731A40026002680B891A430F
:101DB00002604B7C026863F30D320260CB7B0268E9
:101DC00063F38B2202608B7B026863F3092202605B
:101DD0004B7B026863F3C71202600B7B026863F3FC
:101DE000861202600B7C026863F3451202604B8925
:101DF000426863F30F0242600A6882604A68C26008
:101E000070470000FEB504460D4616466FF0704060
:101E1000002322460221CDE900560290014800F03D
:101E2000C1F9FEBDA8000020FEB504460D461646C9
:101E30006FF07040002322460221CDE90056029047
:101E4000014800F032FAFEBDA80000201CB504468F
:101E500001212E48FFF7A8FE01212D48FFF7A4FE1F
:101E600001212B48FFF7A0FE684600F070F8012022
:101E70008DF8070000208DF8040002208DF8060080
:101E80004002009000208DF805006946214800F0CE
:101E900068F801208DF8070000208DF8040002206A
:101EA0008DF806008002009000208DF8050069463C
:101EB000184800F056F807220A21164800F08EF85C
:101EC00007220B21134800F089F8032000F03EFCA4
:101ED00001221146272000F0D5FB002301222146D4
:101EE0000D4801F005FC01210B4801F077FC0121B0
:101EF000094801F06EFC01220849074801F04EFC38
:101F00000121054801F0E6FB1CBD00001200400065
:101F100002003000000802400048004005000C00AC
:101F200070B504460D4600BF8021054801F0D7FB7F
:101F30000028F9D0A1B2024801F0C8FB204670BDCC
:101F4000001001400AB1816100E0816270474FF6E4
:101F5000FF71016000218171017141710121C17125
:101F6000704770B50A4600211488A3B233E003F02D
:101F700001046CB304684E000325B540AC43046013
:101F800094794D00AC4005682C43046044680125F9
:101F90008D40AC434460446815798D402C434460C7
:101FA00084684E000325B540AC438460D4794D006D
:101FB000AC4085682C438460C4684E000325B5405E
:101FC000AC43C46054794D00AC40C5682C43C46038
:101FD0005B104C1CA1B2002BC9DC70BDF0B5002316
:101FE00000244D07ED0E02FA05F3CD105DB1456AF0
:101FF0004E07F70E0F26BE40B5434562456A45EAD7
:10200000030444620AE0056A4E07F70E0F26BE403D
:10201000B5430562056A45EA03040462F0BD10B5E4
:102020000446206800F0C8F9204600F025F8012198
:10203000206800F007F810BD0146486AC0B270473A
:1020400081627047026861F3000202607047C161FB
:10205000704702469069084008B10120704700208F
:10206000FCE7036823F0010303600261036861F386
:102070000B230360704700001CB5044633492068F9
:10208000884261D101213248FFF78EFD012131489C
:10209000FFF78AFD01212F48FFF786FD04220A2160
:1020A0002D48FFF79BFF04220B212B48FFF796FFDB
:1020B00001208DF8070002208DF8060001208DF820
:1020C000040000208DF805004FF480600090694600
:1020D0002148FFF746FF4FF40060009069461E4814
:1020E000FFF73FFF01211B481530FFF75DFD20681A
:1020F0002830206200216162102121854FF6FF7196
:10210000618500212C20015501212D200155002140
:102110002E2001552F200155302001553120015529
:1021200004F12001A069FFF73BFE04F12001E06902
:10213000FFF736FE094A0F212068FFF792FFA02221
:102140000021206800F029F91CBD00000058004063
:102150001600400001003000000402404E4C508048
:102160002DE9F04104460F4615469846012F04D14B
:10217000E9B22068FFF764FF12E0290A2068FFF740
:102180005FFF434601220221204600F095F90646F2
:1021900016B13046BDE8F081E9B22068FFF750FF84
:1021A0000020F7E72DE9F84F04460D4616461F4676
:1021B000DDE90B9ADDF82880C4F80480A4F80A90C1
:1021C00000202075534600224FF40041204600F0C5
:1021D00073F910B10120BDE8F88F4FF40050009062
:1021E00000232A463146206800F056F95346012262
:1021F0000221204600F060F908B10220EBE75346C7
:102200003A4629462046FFF7ABFF08B10320E2E734
:10221000534600224021204600F04EF908B1042028
:10222000D9E74FF410523146204600F016F927E066
:10223000534601220421204600F03EF908B1052052
:10224000C9E72068FFF7F8FE6268511C61601070F2
:102250006089401E60812089401E2081208978B9D4
:10226000608968B1534600228021204600F024F99D
:1022700008B10620AFE700223146204600F0EDF815
:1022800060890028D4DC534601222021204600F03A
:1022900013F908B107209EE720212068FFF7D7FE39
:1022A000204600F0BBF8002095E72DE9F0470446F2
:1022B0000D4616461F46DDE9099ADDF82080C4F870
:1022C000048009EB05006081002020755346002240
:1022D0004FF40041204600F0EFF810B10120BDE8B6
:1022E000F0874FF400523146204600F0B6F85346CE
:1022F00001220221204600F0DFF808B10220EEE7BB
:1023000053463A4629462046FFF72AFF08B10320E4
:10231000E5E72089401B20816089401B608127E020
:10232000534601220221204600F0C6F808B10420DD
:10233000D5E763685A1C626019782068FFF780FE51
:102340002089401E20816089401E6081208978B9E3
:10235000608968B1534601228021204600F0ACF824
:1023600008B10520BBE700223146204600F075F891
:1023700060890028D4DC534601222021204600F049
:102380009BF808B10620AAE720212068FFF75FFE2E
:10239000204600F043F80020A1E7836861F38A2318
:1023A0008360836862F309038360836823F40043D6
:1023B00003F500438360704710B504461348844218
:1023C00008D101211248FFF715FC00211048FFF742
:1023D00011FC1AE00F4884420AD101210C48401C2C
:1023E000FFF708FC00210A48401CFFF703FC0CE043
:1023F0000948844209D101210548801CFFF7FAFBF6
:1024000000210348801CFFF7F5FB10BD005400407D
:102410001500200000580040005C00400168496839
:102420006FF30901026851600168496821F4805125
:10243000026851600168496821F47F0102685160B7
:102440000168496821F0807102685160016849683B
:1024500021F48061026851607047F8B504460E4669
:1024600015466089FF280BDDFF202081009521891A
:10247000CAB24FF080733146206800F00DF80AE0D0
:102480006089208100952189CAB24FF000733146DE
:10249000206800F001F8F8BD70B50446049D60683E
:1024A000044E304041EA03062E43304340EA0240E6
:1024B000606070BD009800FC2DE9F04104460F46B5
:1024C00015461E46B7F5004F0FD107E0301EA6F1A6
:1024D000010603D112202075BDE8F081394620683D
:1024E000FFF7B7FD0028F1D12EE027E005F001004D
:1024F00058B110212068FFF7ACFD30B110212068E1
:10250000FFF7A5FD11202075E6E705F0020070B188
:1025100020212068FFF79DFD48B120212068FFF7AA
:1025200096FD2046FFF77AFF10202075D4E7301E75
:10253000A6F1010602D112202075CDE739462068A8
:10254000FFF787FD0028D1D00020C5E710B503486C
:10255000034908600846FFF762FD10BD00580040BF
:10256000A80000200EB56FF070400221064A00233B
:10257000CDE900210290922201210448FFF712FECA
:10258000014800780EBD000038000020A80000209F
:1025900086B014222CA101A8FEF713F800BFFFF7A4
:1025A00047F8044600F090FCFFF75DF82B48006800
:1025B0002A48006829480068FEF7DEFA002128480A
:1025C00000F0EBFEFFF7C2FF102226490020FFF7C4
:1025D0002BFC0520FFF7D6FB102223490020FFF734
:1025E00011FC00F0E7F821A20021084600F0C6F92E
:1025F00000F076FD26E000F007FB00F099FAFFF707
:1026000017F80446F4B1012C02D0042C18D10BE0C9
:10261000FEF75CF91948006880F00100174908606E
:102620000020FEF76BFF0CE0FEF750F9144800683D
:1026300080F00100124908600120FEF75FFF00E012
:1026400000BF00BFD7E70000345348585845413811
:102650004A323153433847370000000070000020F1
:10266000000C004028000020DC0000203230323313
:10267000303330313031303435000000100000206C
:10268000140000202DE9F0470B4614464FF0000CD3
:1026900000BF2C4A1268C2F302211D4626460A4694
:1026A000C2F10709B9F1040F02D94FF0040901E0A2
:1026B000C2F10709C84602F10409B9F1070F02D2B5
:1026C0004FF0000901E0A2F103094F464FF0010964
:1026D00009FA08F9A9F1010909EA050909FA07F94E
:1026E0004FF0010A0AFA07FAAAF1010A0AEA060AF1
:1026F00049EA0A09CC4601466246002904DB15076F
:102700002E0E114D6E5407E015072F0E0D4D0C3592
:1027100001F00F06361FAF5500BF014600290DDB43
:1027200000BF00BF01F01F050122AA404D09AD0006
:1027300005F1E025C5F8002100BF00BF00BFBDE8DE
:10274000F08700000CED00E000E400E000BF00F0C6
:102750000702064B19684FF6FF031940044B0B4361
:1027600043EA0221014B196000BF70470CED00E005
:102770000000FA0570B5002419E004F1B001C8B2F8
:10278000002100F017F90021084600F013F900219C
:10279000102000F00FF9002505E00121002000F0D5
:1027A00009F9681CC5B2802DF7DB601CC4B2082C87
:1027B000E3DB70BD10B5FEF781FA012240214748E6
:1027C000FFF7C0FB0A20FFF7DDFA00224021434853
:1027D000FFF7B8FB0A20FFF7D5FA012240213F4856
:1027E000FFF7B0FB0021AE2000F0E4F8002108461E
:1027F00000F0E0F80021102000F0DCF8002140207B
:1028000000F0D8F80021812000F0D4F80021CF207A
:1028100000F0D0F80021A12000F0CCF80021C82061
:1028200000F0C8F80021A62000F0C4F80021A8207C
:1028300000F0C0F800213F2000F0BCF80021D320B8
:1028400000F0B8F80021084600F0B4F80021D520C7
:1028500000F0B0F80021802000F0ACF80021D92071
:1028600000F0A8F80021F12000F0A4F80021DA20FF
:1028700000F0A0F80021122000F09CF80021DB20DD
:1028800000F098F80021402000F094F8002120206A
:1028900000F090F80021022000F08CF800218D203B
:1028A00000F088F80021142000F084F80021A42012
:1028B00000F080F80021A62000F07CF80021AF2075
:1028C00000F078F80021AF2000F074F8FFF752FF15
:1028D0000021084600F004F810BD0000001002407E
:1028E00070B504460D4605F1B001C8B2002100F0F4
:1028F00061F8102141EA1410002100F05BF804F0A7
:102900000F00002100F056F870BD00002DE9F041E5
:1029100007460E46904600250024A8F12000C5B2C7
:102920007F2F02DD0027B01CC6B231463846FFF7C4
:10293000D7FF002408E004EB05110F4A505C012189
:1029400000F038F8601CC4B2082CF4DB701CC1B273
:102950003846FFF7C5FF002409E004EB05110831F4
:10296000054A505C012100F025F8601CC4B2082C17
:10297000F3DBBDE8F0810000883A00082DE9F04162
:1029800004460F46154600260EE0AA5D394620464D
:10299000FFF7BCFF04F10800C4B2782C02DD00246C
:1029A000B81CC7B2701CC6B2A85D0028EDD1BDE846
:1029B000F081000070B505460C462CB10122402183
:1029C0000E48FFF7BFFA06E0012C04D00022402198
:1029D0000A48FFF7B7FA002208210848FFF7B2FAC1
:1029E000284600F061FA012208210448FFF7AAFAFC
:1029F000012240210148FFF7A5FA70BD000C0240FA
:102A00001CB501212A48FFF7CFF801212848401CB6
:102A1000FFF7CAF801212648401EFFF7C5F801213B
:102A20002348801CFFF7C0F86846FFF790FA0020A3
:102A30008DF8040001208DF8070002208DF80500B4
:102A40008DF806000820009069461A48FFF789FAB9
:102A5000062203211748FFF7C1FA02208DF805006E
:102A60002020009069461348FFF77BFA06220521D3
:102A70001048FFF7B3FA6846FFF769FA01208DF8AE
:102A8000070000208DF8040001208DF806000820C2
:102A9000009000208DF8050069460748FFF761FAAD
:102AA0004020009069460448FFF75BFA1CBD000017
:102AB0000200300000040240000C024010B5044641
:102AC00015A12046FDF74CFD28B1012013490860EF
:102AD0000020FEF7FFFC12A12046FDF741FD20B1CA
:102AE00000200E490860FEF7E1FC0EA12046FDF72C
:102AF00037FD20B101200C490860FEF7EBFC0BA16B
:102B00002046FDF72DFD28B100200749086001206F
:102B1000FEF7CCFC10BD00005B315D001000002012
:102B20005B325D005B335D00140000205B345D00B0
:102B300008B552E02C48007810B12CA0FDF756FCE7
:102B40009DF800005B2810D100202C4908609DF8FA
:102B500000102A4802680068401C284B186028486A
:102B600081540020274908602CE09DF800005D2872
:102B700016D122480068002812DD9DF800101F4879
:102B800002680068401C1D4B18601D4881540020DD
:102B90001B491A461268885401201A49086011E03E
:102BA0001648006800280DDD14480068132809D273
:102BB0009DF80010114802680068401C0F4B186017
:102BC0000F4881540F48006838B10D48FFF776FF71
:102BD00000200C4908600949086069460220FEF798
:102BE00097FE0028A6D108BD180000204F4B2C6886
:102BF0006176652068656172740000001C00002029
:102C0000940000202000002010B588B01F48006804
:102C100028B91F4800681D49086008B010BD1B484E
:102C2000006800F5FA601A490968401A2CD5FEF7C9
:102C300003FC18490860FFF795FC1749086017481E
:102C4000006817490968CDE9001013480368114866
:102C500014A1026803A8FDF7D5FB03A8FDF7C6FB86
:102C600003A8FDF78FFC84B2224603A90220FEF7D9
:102C70005EFE03A90FA0FDF7B9FB01201149087002
:102C8000034800680149086000BFC6E7240000202F
:102C9000700000200C00002008000020140000201C
:102CA000100000202325642C25642C25642C256429
:102CB00023000000737563636565643A2025730A19
:102CC00000000000180000201CB501211148FEF78B
:102CD0006BFF684600F022F803208DF80000012009
:102CE0008DF8010004208DF8020000208DF803000B
:102CF0008DF804008DF805008DF8060001208DF890
:102D000007006946044800F023F80121024800F05A
:102D100010F81CBD0F004000003C00400021017075
:102D200041708170C1700171417181710121C17166
:102D30007047026861F3861202607047C160704795
:102D40000246002093680B4003B900E00120704761
:102D5000C26922F40062C2610A7862B9026822F490
:102D600000420260026822F480420260026822F49B
:102D70008062026036E00A78012A0ED1026822F4ED
:102D800000420260026822F480420260026822F47B
:102D9000806202F58062026024E00A78022A0ED185
:102DA000026822F4004202F500420260026822F446
:102DB00080420260026822F48062026012E00A78B7
:102DC000032A0FD1026822F4004202F50042026099
:102DD000026822F4804202F580420260026822F416
:102DE00080620260CB79026863F3492202604A780C
:102DF000012A09D1CA79012A06D1026822F4807217
:102E000002F58072026003E0026822F480720260C0
:102E10004B78026863F3820202608A78072A0DDC2D
:102E2000426822F400724260426822F4807242607A
:102E30008B78026863F3C502026020E08A780A2A70
:102E40000ED1426822F4007202F5007242604268BC
:102E500022F480724260026822F0380202600EE0C2
:102E6000426822F400724260426822F4807202F5E5
:102E7000807242608A78036862F3C5030360CB788E
:102E8000026863F3C71202600B79026863F3CB2216
:102E900002604B79026863F3410202608B79026839
:102EA00063F300020260704710B5044621460548EE
:102EB000FFF744FF00BF80210248FFF741FF0128D0
:102EC000F9D010BD003C004010B5FEF7DDFE012139
:102ED0002148FEF769FE2148006920F00700401CE8
:102EE0001E4908611E48006820F00300401C1C4970
:102EF000086001210846FEF76BFD00BFFEF73CFEAF
:102F00000028FBD00223012290211046FEF798FEF4
:102F100001210220FEF75CFD00BF1920FEF714FE20
:102F20000128FAD10020FEF721FD0420FEF732FD32
:102F30000420FEF725FD0120FEF736FD0220FEF7F6
:102F4000DFFE00BFFEF7FAFE0228FBD10020FEF7ED
:102F50002BFD00F007F810BD1C0040000070004081
:102F6000603C02402DE9FC5F002400250026A146BC
:102F7000A246A34600200190FEF7E0FE00900098D4
:102F800020B1012814D0022841D115E02B48006857
:102F9000C0F3803040B129480068C0F3003018B158
:102FA00027482849086002E027482649086032E09F
:102FB0002548244908602EE020489C380068C0F36A
:102FC00080591E489C380068C0F388141B489C3800
:102FD000006800F00F0519489C380068C0F30240F3
:102FE0001A490E5CB9F1000F02D1DFF85CA001E0D4
:102FF000DFF854A005FB06FCAAFB047001466246FC
:1030000000233846FDF77BF90E49086003E00E48BF
:103010000C49086000BF00BF084898380068C0F33A
:10302000031B0B4810F80B0001900648006801993B
:10303000C84004490860BDE8FC9F0000A038024079
:10304000006CDC029000002000127A003141000880
:1030500021410008042808D14FF0E021096941F01E
:1030600004014FF0E022116107E04FF0E02109690F
:1030700021F004014FF0E022116170471FB50020DC
:1030800000900190029003906846FEF7D5FC012164
:103090001148FEF789FD42F210710198B0FBF1F082
:1030A000441E224609210D4800F04EF900210B482C
:1030B00000F06EF901221146084800F07FF9032064
:1030C000FFF744FB012211463620FFF7DBFA01210E
:1030D000024800F062F91FBD0400400000100040EB
:1030E00010B586B014224FA101A8FDF76AFA032299
:1030F00051A10220FEF71BFC4FF47A70FEF742FE4E
:103100004EA0FDF7A9FC41F288314DA0FDF7B8FCB7
:10311000012807D04BA0FDF769F940F6B830FEF75B
:1031200031FE02E04BA0FDF761F94DA0FDF794FCE4
:1031300041F2883142A0FDF7A3FC012803D04AA048
:10314000FDF754F902E043A0FDF750F94AA0FDF75E
:1031500083FC41F288313AA0FDF792FC012803D0AC
:1031600048A0FDF743F902E03AA0FDF73FF94AA075
:10317000FDF772FC42F2107131A0FDF781FC0128CD
:1031800007D04CA0FDF732F94FF47A70FEF7FAFD44
:1031900002E030A0FDF72AF94AA0FDF75DFC41F2FC
:1031A000883127A0FDF76CFC012803D04FA0FDF764
:1031B0001DF902E027A0FDF719F951A0FDF74CFC1D
:1031C00041F288311EA0FDF75BFC012803D050A01E
:1031D000FDF70CF902E01FA0FDF708F951A0FDF77B
:1031E0003BFC41F2883116A0FDF74AFC012803D0D0
:1031F00047A0FDF7FBF802E016A0FDF7F7F84CA09A
:10320000FDF7F4F801A8FDF7BDF984B2224601A943
:103210000220FEF78CFB4FF47A60FEF7B3FD06B098
:1032200010BD0000584641335554395A453030538B
:103230003953324B000000002B2B2B00415400006F
:103240004F4B00000D0A204154206661696C210D2E
:103250000A0000000D0A204154204F4B210D0A00A6
:1032600041544530000000000D0A204154453020F3
:103270006661696C0D0A000041542B43574D4F4461
:10328000453D31000D0A2043574D4F4445206661AE
:10329000696C0D0A0000000041542B43574A41500D
:1032A0003D224343222C22313233343536373839EC
:1032B000220000000D0A2043574A415020666169F0
:1032C0006C0D0A0041542B43495053544152543D14
:1032D00022544350222C227463702E746C696E6BDE
:1032E0002E696F222C383634370000000D0A204337
:1032F00049505354415254206661696C0D0A0000D4
:1033000041542B4349504D4F44453D31000000008E
:103310000D0A204349504D4F4445206661696C0DAC
:103320000A00000041542B43495053454E440000CD
:103330000D0A2073657276657220636F6E6E656329
:10334000746564210D0A0000C1628262436923F042
:1033500001035B1C4361704710B50B46082B0FD26D
:10336000DFE803F0040E060E080E0A0C426308E0C4
:10337000826306E0C26304E0026402E0426700E0A8
:1033800000BF00BF10BD026861F3092202607047F0
:10339000026861F3061202607047026861F300027E
:1033A00002607047CA4302617047024600201369F9
:1033B0000B400BB1012000E000207047012A03D12F
:1033C000C3680B43C36003E012B9C3688B43C36097
:1033D000704710B50B46082B1ED2DFE803F0041D22
:1033E000091D0E1D1318846962F3C304846114E07F
:1033F000846962F3CB2484610FE0C46962F3C3047F
:10340000C4610AE0C46962F3CB24C46105E0046FBF
:1034100062F3C304046700E000BF00BF10BD2DE9E4
:10342000F04100250026002701F108035C1C92F8FA
:1034300001C00CFA03FC1FFA8CF592F802C00CFADA
:1034400004FC1FFA8CF6D0F804804FF0010C0CFA43
:1034500004FC28EA0C08C0F80480D0F804C04CEA48
:10346000060CC0F804C0D0F804C04FF0010808FAF8
:1034700003F82CEA080CC0F804C0D0F804C04CEAE9
:10348000050CC0F804C00F46082F32D2DFE807F061
:1034900004310D3116311F2892F80080D0F818C081
:1034A00068F3061CC0F818C024E092F80080D0F839
:1034B00018C068F30E3CC0F818C01BE092F80080FA
:1034C000D0F81CC068F3061CC0F81CC012E092F8CB
:1034D0000080D0F81CC068F30E3CC0F81CC009E0A6
:1034E00092F80080D0F870C068F3061CC0F870C075
:1034F00000E000BF00BF4FF0010C0CEB41034FF0A8
:10350000030C0CEB410492F803C00CFA03FC1FFA05
:103510008CF592F804C00CFA04FC1FFA8CF64FF0FC
:10352000010C0CFA04FCD0F8208028EA0C08C0F842
:103530002080D0F820C04CEA060CC0F820C04FF024
:10354000010808FA03F8D0F820C02CEA080CC0F8EB
:1035500020C0D0F820C04CEA050CC0F820C04B00B9
:103560004FF0020C0CEB410492F805C04FEA410801
:103570000CFA08FC1FFA8CF592F806C04FF002080E
:1035800008EB41080CFA08FC1FFA8CF64FF0010C0E
:103590000CFA04FCD0F8208028EA0C08C0F820803F
:1035A000D0F820C04CEA060CC0F820C04FF0010C47
:1035B0000CFA03FCD0F8208028EA0C08C0F8208020
:1035C000D0F820C04CEA050CC0F820C0BDE8F0815E
:1035D0000021017041708170C17001714171817170
:1035E0007047426C61F3CF3242647047026861F306
:1035F000C7120260704700001CB5044601212C4828
:10360000FEF7D2FA01212B48FEF7CEFA6846FEF704
:103610009EFC01208DF8070000208DF80400022098
:103620008DF806004020009000208DF805006946C6
:103630002148FEF796FC01208DF8070000208DF848
:10364000040002208DF806008020009001208DF8F3
:10365000050069461848FEF784FC07220621164833
:10366000FEF7BCFC072211461348FEF7B7FC032007
:10367000FFF76CF8002211462520FFF703F800231E
:10368000012221460D4800F033F801210B4800F0DB
:10369000A5F80121094800F09CF8012208490748D3
:1036A00000F07CF80121054800F014F81CBD000072
:1036B00004004400010030000004024000100140FA
:1036C00005000C000146486880B27047C1F308024B
:1036D00042607047C26861F34D32C2607047024673
:1036E0001068084008B1012070470020FCE7000086
:1036F0002DE9FF4704468846164699466846FEF778
:103700009BF92448844202D02348844201D1029F7D
:1037100000E0039F07EB87004000B0FBF8F50A20AC
:10372000B5FBF0F100FB1150052803D20A20B5FBD0
:10373000F0F503E00A20B5FBF0F0451CA06865F346
:103740000F00A06056B9E06820F0805000F1805072
:10375000E060E06820F48050E06014E0012E08D1C1
:10376000E06820F08050E060E06820F48050E06085
:1037700009E0E06820F08050E060E06820F48050CC
:1037800000F58050E060206969F30D302061BDE8EC
:10379000FF870000001001400014014030B5012AED
:1037A0000BD100EB11431B6801F01F050124AC4055
:1037B000234300EB114423600AE000EB11431B6834
:1037C00001F01F050124AC40A34300EB114423602A
:1037D00030BDC26861F38202C2607047C26861F3A3
:1037E000C302C26070474FF04070E1EE100A7047AC
:1037F00000040240002000000004024000400000DD
:10380000000402400080000000100240020000009E
:10381000000C024004000000000C024000100000F8
:1038200000040240040000000010024010000000EC
:103830006273705F537461727454696D6572006273
:1038400073705F53746172744175746F54696D6500
:1038500072006273705F53746F7054696D657200AB
:103860000000000000000000002F00000000070022
:10387000070000147F147F1400242A7F2A1200629C
:103880006408132300364955225000000503000048
:1038900000001C224100000041221C000014083ED0
:1038A00008140008083E0808000000A06000000896
:1038B00008080808000060600000002010080402EA
:1038C000003E5149453E0000427F400000426151A8
:1038D0004946002141454B31001814127F10002742
:1038E00045454539003C4A49493000017109050305
:1038F00000364949493600064949291E0000363636
:103900000000000056360000000814224100001498
:103910001414141400004122140800020151090675
:1039200000324959513E007C1211127C007F4949F6
:103930004936003E41414122007F4141221C007F27
:1039400049494941007F09090901003E4149497A35
:10395000007F0808087F0000417F410000204041AF
:103960003F01007F08142241007F40404040007F1B
:10397000020C027F007F0408107F003E4141413E5F
:10398000007F09090906003E4151215E007F0919A7
:1039900029460046494949310001017F0101003FA4
:1039A0004040403F001F2040201F003F4038403F24
:1039B0000063140814630007087008070061514988
:1039C000454300007F41410000552A552A5500001B
:1039D00041417F0000040201020400404040404099
:1039E000000001020400002054545478007F484431
:1039F000443800384444442000384444487F003868
:103A00005454541800087E0901020018A4A4A47C90
:103A1000007F080404780000447D4000004080845A
:103A20007D00007F102844000000417F4000007CA2
:103A300004180478007C08040478003844444438AE
:103A400000FC242424180018242418FC007C0804FA
:103A5000040800485454542000043F444020003CD3
:103A60004040207C001C2040201C003C4030403C5A
:103A7000004428102844001CA0A0A07C00446454EA
:103A80004C4414141414141400000000000000002E
:103A90000000000000000000000000F8000000002E
:103AA000000000333000000000100C06100C06006F
:103AB000000000000000000040C07840C0784000D6
:103AC000043F04043F040400007088FC0830000038
:103AD000001820FF211E0000F008F000E018000090
:103AE00000211C031E211E0000F008887000000049
:103AF0001E2123241927211010160E00000000009B
:103B00000000000000000000000000E018040200B7
:103B1000000000071820400000020418E000000028
:103B20000040201807000000404080F08040400026
:103B30000202010F01020200000000F0000000007C
:103B40000101011F01010100000000000000000050
:103B500080B07000000000000000000000000000C5
:103B6000000101010101010100000000000000004E
:103B700000303000000000000000000080601804E9
:103B8000006018060100000000E010080810E000C6
:103B9000000F102020100F00001010F8000000008F
:103BA0000020203F202000000070080808887000D6
:103BB0000030282422213000003008888848300056
:103BC0000018202020110E000000C02010F8000076
:103BD00000070424243F240000F80888880808000F
:103BE0000019212020110E0000E010888818000024
:103BF000000F112020110E0000380808C8380800F6
:103C00000000003F00000000007088080888700075
:103C1000001C222121221C0000E010080810E000F6
:103C20000000312222110F00000000C0C00000007F
:103C300000000030300000000000008000000000A4
:103C4000000080600000000000008040201008009C
:103C50000001020408102000404040404040400065
:103C60000404040404040400000810204080000040
:103C70000020100804020100007048080808F00045
:103C80000000003036010000C030C828E810E00015
:103C90000718272423140B000000C038E0000000A0
:103CA000203C23020227382008F88888887000000A
:103CB000203F202020110E00C030080808083800DE
:103CC000071820202010080008F808080810E00055
:103CD000203F202020100F0008F88888E8081000F6
:103CE000203F20202320180008F88888E8081000CA
:103CF000203F200003000000C03008080838000002
:103D000007182020221E020008F808000008F80802
:103D1000203F210101213F20000808F80808000089
:103D20000020203F2020000000000808F8080800BC
:103D3000C08080807F00000008F888C02818080034
:103D4000203F20012638200008F80800000000006D
:103D5000203F20202020300008F8F800F8F8080064
:103D6000203F003F003F200008F830C00008F8085E
:103D7000203F200007183F00E01008080810E0006E
:103D80000F10202020100F0008F808080808F00085
:103D9000203F210101010000E01008080810E000A8
:103DA0000F18242438504F0008F88888888870003D
:103DB000203F2000030C30200070880808083800DD
:103DC0000038202121221C00180808F808081800D3
:103DD0000000203F2000000008F808000008F80854
:103DE000001F202020201F000878880000C8380805
:103DF000000007380E010000F80800F80008F8007D
:103E0000033C0700073C0300081868808068180816
:103E100020302C03032C30200838C800C838080094
:103E20000000203F2000000010080808C8380800E3
:103E30002038262120201800000000FE0202020087
:103E40000000007F40404000000C30C00000000037
:103E5000000000010638C00000020202FE0000005F
:103E6000004040407F000000000004020202040005
:103E70000000000000000000000000000000000042
:103E8000808080808080808000020204000000002A
:103E90000000000000000000000080808080000022
:103EA0000019242222223F2008F800808000000010
:103EB000003F112020110E000000008080800000D3
:103EC000000E112020201100000000808088F800E2
:103ED000000E112020103F20000080808080000014
:103EE000001F222222221300008080F08888881878
:103EF0000020203F20200000000080808080800083
:103F0000006B94949493600008F800808080000017
:103F1000203F210000203F200080989800000000F2
:103F20000020203F20200000000000809898000022
:103F300000C08080807F000008F800008080800042
:103F4000203F24022D302000000808F80000000067
:103F50000020203F20200000808080808080800022
:103F6000203F20003F20003F8080008080800000B4
:103F7000203F210000203F20000080808080000042
:103F8000001F202020201F00808000808000000073
:103F900080FFA12020110E000000008080808000A2
:103FA000000E112020A0FF80808080008080800093
:103FB00020203F21200001000000808080808000C0
:103FC0000033242424241900008080E08080000035
:103FD0000000001F20200000808000000080800082
:103FE000001F202020103F208080800000808080E3
:103FF00000010E3008060100808000800080808073
:104000000F300C030C300F00008080008080800097
:104010000020312E0E3120008080800000808080C2
:1040200080818E7018060100008080808080800072
:104030000021302C2221300000000000807C020290
:1040400000000000003F404000000000FF000000B2
:1040500000000000FF0000000002027C8000000061
:104060000040403F0000000000060101020204047D
:10407000000000000000000005CED2282828F82407
:10408000A0FC2024A820000212111F09080506091F
:10409000101C00C3C740F00C00F40810080808F812
:1040A00000001F00001F00000010101F00C7B640D6
:1040B000FC5050F05C9070505CC000001F0A0A1F5A
:1040C00011080704091000C8EB00000004C438C040
:1040D00000000000001008040300000003040810A2
:1040E00000CABD909090909090FC10141810001091
:1040F00010100F0808010608101C00000000000046
:104100000000000102030406070809000000000186
:10411000020304000000000102030401020408106D
:104120002000000000000000000102030406070850
:104130000901020408102000584100080000002076
:104140009400000048020008EC41000894000020A0
:10415000C40F00006402000800000000000000001E
:10416000000000000000000000000000000000004F
:10417000000000000000000000000000000000003F
:10418000000102030405060708090A0B0C0D0E0FB7
:10419000000000000000000000080240000802408B
:1041A00000000000001000020000000002003000CB
:1041B00002003000000000000000000000000000CD
:1041C00000000000000000000000000000000000EF
:1041D00000000000000000000000000000000000DF
:0C41E000000000000000000000127A0047
:040000050800020DE0
:00000001FF
