:020000040800F2
:1000000010070020AD020008990400086F040008E2
:1000100095040008490400083105000800000000AC
:100020000000000000000000000000009D04000827
:100030006D040008000000009B0400089F040008F5
:10004000C7020008C7020008C7020008C70200086C
:10005000C7020008C7020008C7020008C70200085C
:10006000C7020008C7020008C7020008C70200084C
:10007000C7020008C7020008C7020008C70200083C
:10008000C7020008C7020008C7020008C70200082C
:10009000C7020008C7020008C7020008C70200081C
:1000A000C7020008C7020008C7020008C70200080C
:1000B000C7020008C7020008C7020008C7020008FC
:1000C000C70200088504000875040008C70200087C
:1000D000C7020008C7020008C7020008C7020008DC
:1000E000C7020008C7020008C7020008C7020008CC
:1000F000C7020008C7020008C7020008C7020008BC
:10010000C7020008C7020008C7020008C7020008AB
:10011000C7020008C7020008C7020008C70200089B
:100120004D0400085D040008C7020008C70200086B
:10013000C7020008C7020008C7020008C70200087B
:10014000C7020008C7020008C7020008C70200086B
:10015000C7020008C702000800000000C70200082C
:10016000C7020008C70200080000000000000000ED
:10017000C7020008C7020008C7020008000000000C
:1001800000000000C7020008C7020008C7020008FC
:10019000C70200080000000000000000000000008E
:1001A000000000000000000000000000C70200087E
:1001B000C702000800000000C7020008000000009D
:1001C000000000000000000000000000000000002F
:1001D0000000000000000000C7020008C70200087D
:1001E000C7020008C7020008C7020008C7020008CB
:1001F000C7020008C7020008C7020008C7020008BB
:10020000C7020008C7020008C702000800F002F891
:1002100000F03CF80AA090E8000C82448344AAF164
:100220000107DA4501D100F031F8AFF2090EBAE862
:100230000F0013F0010F18BFFB1A43F0010318471A
:100240007421000094210000103A24BF78C878C1BE
:10025000FAD8520724BF30C830C144BF04680C60CC
:10026000704700000023002400250026103A28BF14
:1002700078C1FBD8520728BF30C148BF0B60704718
:100280001FB502F087F81FBD10B510BD00F0AAF829
:100290001146FFF7F5FF01F065FE00F0C8F803B462
:1002A000FFF7F2FF03BC00F045F900000948804762
:1002B00009480047FEE7FEE7FEE7FEE7FEE7FEE748
:1002C000FEE7FEE7FEE7FEE704480549054A064B60
:1002D00070470000A10400080D0200081001002072
:1002E000100700201003002010030020704753EA7D
:1002F000020C00F069802DE9F04B4FF00006002B56
:100300001FBFB3FA83F503FA05F424FA05F65E403D
:1003100012BF1643B2FA82F502FA05F4C5F12005C0
:100320001EBF22FA05FC44EA0C04203556EA044CB0
:100330004FEA144418BF641C4FF000084FF0000946
:10034000904271EB030C39D3002919BFB1FA81F740
:1003500001FA07F6B0FA80F700FA07F6C7F12007AE
:100360001EBF20FA07FC46EA0C062037B6FBF4FC59
:10037000A7EB0507103F07F01F0BCBF120060CFA87
:100380000BFB2CFA06F644BFB3460026202FA4BF71
:100390005E464FF0000B5BEA060C08BF4FF0010B06
:1003A00019EB0B09ABFB027C48EB0608C01B06FBF4
:1003B00002CC0BFB03CC71EB0C01C1E70B460246F0
:1003C00041464846BDE8F08B13B54FF000004FF0B2
:1003D0000001AFF30080BDE81C40704770477047D4
:1003E00070477047754600F02BF8AE460500694629
:1003F000534620F00700854618B020B5FFF764FF8C
:10040000BDE820404FF000064FF000074FF0000815
:100410004FF0000B21F00701AC46ACE8C009ACE896
:10042000C009ACE8C009ACE8C0098D46704710B5FA
:100430000446AFF300802046BDE81040FFF72FBF11
:1004400000487047B000002000BFFEE710B502482A
:1004500000F0E2FD10BD00007C00002010B5024855
:1004600000F0D3FD10BD00007C000020704700BFED
:10047000FEE7000010B5024800F0E3FE10BD0000EA
:100480007C00002010B5024800F04AFF10BD0000BB
:100490007C00002000BFFEE7704770477047704740
:1004A0001F48006840F470001D4908601D4800683E
:1004B00020F00100401C1B49086000BF194800687B
:1004C000C0F340000028F9D016480830006820F03A
:1004D000030014490831086000BF12480830006862
:1004E000C0F381000028F8D10E4800680E4908408A
:1004F0000C49086000200B49083108600B48091FAF
:10050000086000200749A03108604FF41F0005492A
:100510000C3108604FF00060014980390860704775
:1005200088ED00E000380240FFFFF2FE02300300D9
:1005300000BFFEE700BF704710B500F03FFA002093
:1005400000F05AF8012000F057F8022000F054F8AB
:10055000002000F079F8012000F076F8022000F089
:1005600073F800F001F810BD1CB501210C4800F033
:1005700053F9684600F089FC01208DF8070000203F
:100580008DF804008DF806004FF400500090022012
:100590008DF805006946034800F081FC1CBD000091
:1005A000010030000004024010B50D480078012819
:1005B0000DD100F017F850B10020094908700A2049
:1005C00000F018FA00F00EF838B1002010BD00F06D
:1005D00009F810B90120024908700120F6E700006F
:1005E0005000002010B54FF40051024800F094FC78
:1005F00010BD0000000402401CB504460F4951F82C
:100600002400012100F008F9684600F03EFC0120BA
:100610008DF8070000208DF8040001208DF80600F9
:10062000074830F81400009000208DF805000549B7
:1006300051F82400694600F032FC1CBD380000204F
:100640003000002024000020022800DD7047064909
:1006500031F8101031B1044931F81010034A52F842
:100660002020916100BFF1E730000020240000202D
:10067000022800DD7047064931F8101031B10449F5
:1006800031F81010034A52F82020916200BFF1E7C0
:100690003000002024000020022800DD70470949B6
:1006A00031F8101059B1084951F820104969054A2C
:1006B00032F810205140044A52F82020516100BF06
:1006C000ECE70000300000202400002030B5034695
:1006D0000C46002106E0585C655CA84201D0012070
:1006E00030BD491C9142F6D30020F9E7034909685F
:1006F00060F30711014A116070470000083802409A
:100700000349096860F38C21014A116070470000B9
:10071000083802400349096860F34F31014A11600B
:100720007047000008380240012807D107490968CE
:1007300021F030013031054A116005E003490968B4
:1007400021F03001014A116070470000A4380240D6
:1007500005282BD2DFE800F0030A11182100154A02
:10076000126861F30002134B1A6020E0114A12680C
:1007700061F310420F4B1A6019E00E4A126861F3E0
:1007800018620C4B1A6012E00A4A7032126861F368
:100790000002084B70331A6009E0064A743212688E
:1007A00061F30002034B74331A6000E000BF00BF26
:1007B000704700000038024010B501460020094B88
:1007C00003EB1142D2F8002801F01F040123A340DB
:1007D0001A4001F01F040123A3409A4200D000E018
:1007E000012010BD0030024030B50024002500E09B
:1007F000641C1120FFF7E0FF012802D0B4F5405F30
:10080000F6D31120FFF7D8FF012801D0002500E022
:100810000125284630BD000010B501290FD1104B2D
:1008200003EB1042D2F8002800F01F040123A3407C
:100830001A430B4C04EB1043C3F800280EE0084B9E
:1008400003EB1042D2F8002800F01F040123A3405C
:100850009A43034C04EB1043C3F8002810BD00007A
:100860000030024010B501290FD1104B03EB1042AC
:10087000D2F8002800F01F040123A3401A430B4CB8
:1008800004EB1043C3F800280EE0084B03EB1042C2
:10089000D2F8002800F01F040123A3409A43034C20
:1008A00004EB1043C3F8002810BD000000300240E4
:1008B00030B538B90F4C246824F4805404F58054C2
:1008C0000C4D2C600B4C9C3C246860F39654094DF5
:1008D0009C3D2C602C46246861F38E142C602C46C1
:1008E000246862F303042C602C46246863F31244EA
:1008F0002C6030BDA03802401A48006820F001008A
:10090000401C1849086000BF16480068C0F340004A
:100910000028F9D013480830006820F0030011497E
:100920000831086000BF0F4808300068C0F381003C
:100930000028F8D10B4800680B49084009490860B5
:1009400000200849083108600848091F0860002095
:100950000449A03108604FF41F0002490C310860BF
:100960007047000000380240FFFFF2FE0230030033
:100970000D49096860F301010B4A116000BF00BF17
:1009800000BF00BF00BF00BF00BF00BF00BF00BF6F
:1009900000BF00BF00BF00BF00BF00BF00BF00BF5F
:1009A00000BF00BF704700000838024002480068DE
:1009B000C0F38100704700000838024010B50420E1
:1009C00001F0D4FC074800680749B0FBF1F0074983
:1009D0000860084600684FF47A714843044908608B
:1009E00010BD00005400002040420F0044000020D1
:1009F00048000020002131E032280ADD194A12683F
:100A000032235A434FF0E0235A61A0F1320290B2F0
:100A100006E0144A126842434FF0E0235A61002076
:100A200000224FF0E0239A611A46126942F0010257
:100A30001A6100BF4FF0E022116901F001021AB102
:100A400001F48032002AF5D04FF0E022126922F042
:100A500001024FF0E0231A6100229A610028CBD1F5
:100A60007047000048000020026861F30002026045
:100A700070470000B0F1805F04D920F07041034A54
:100A8000116001E0024908607047000004660240FE
:100A90000464024001460022B1F1805F02D9064899
:100AA000026801E00548026802EA010008B101207D
:100AB00070470020FCE7000000660240006402402E
:100AC00002684BF6EF731A40026002680B891A4302
:100AD00002604B7C026863F30D320260CB7B0268DC
:100AE00063F38B2202608B7B026863F3092202604E
:100AF0004B7B026863F3C71202600B7B026863F3EF
:100B0000861202600B7C026863F3451202604B8917
:100B1000426863F30F0242600A6882604A68C260FA
:100B200070471AB103680B43036002E003688B430C
:100B3000036070470021026822F001020260002277
:100B4000026042608260C260014640F2FF620A4079
:100B5000B2F5C16F0DD2CAB2083A1423B2FBF3F258
:100B600093000F229A400D4B1B681A430B4B1A60DF
:100B700012E040F2FF620A40B2F5D16F0CD2CAB265
:100B8000083A1423B2FBF3F293000F229A40044B6D
:100B90001B681A43024B1A6070470000046402404D
:100BA00004660240D0F8002161F30002C0F8002181
:100BB0007047026861F30602026070472DE9FE4F3C
:100BC00083460E4691469A46DDE90D780F9D012E2B
:100BD0000AD1CDE9007802955246494658460C9B09
:100BE00000F088FDBDE8FE8F022E11D1CDE900781E
:100BF00002955246494658460C9B00F058FE044662
:100C00000CB12046EEE72946584601F04FF9E9E7D6
:100C1000CDE9007802955246494658460C9B00F0B3
:100C2000ECFD04460CB12046DCE72946584601F0AD
:100C30003DF9D7E7F8B504460E4615462B46002287
:100C40004FF40041204601F042F908B10120F8BDFF
:100C50004FF40050009000231A463146206801F0FE
:100C600015F92B4601224021204601F030F988B1C8
:100C70002B4601222021204601F029F908B1042049
:100C8000E5E72021206800F06DFB204600F0CCFF56
:100C90000220DCE7206801F0ECF82B46012220213D
:100CA000204601F014F908B10320D0E72021206884
:100CB00000F058FB204600F0B7FF0020C7E72DE901
:100CC000F04105460E461746002400BF09E03A46AB
:100CD00031462846FFF7AEFF10B90020BDE8F0818D
:100CE000641CB4F57A7FF2D31220F7E72DE9FF4FA9
:100CF00085B0DDE9144ADDE912564FF0000B002003
:100D00000490002780462846E91705EB5171C91069
:100D1000082202EBC101491B8FB2A846BC4200DA8F
:100D20002746CDE9027ACDE9008605A80FC800F074
:100D300067F88146B9F1000F03D0484609B0BDE815
:100D4000F08F524608990598FFF7B9FF08B11220B5
:100D5000F4E708EB07001FFA80F8E01B84B23E447A
:100D60000CB90020EAE72046E11704EB5171C910E5
:100D7000A4EBC10189B20491E11704EB5171C1F3F5
:100D8000CF0B1FE00820CDE9020ACDE9008605A8B7
:100D90000FC800F035F88146B9F1000F01D0484680
:100DA000CCE7524608990598FFF789FF08B1122051
:100DB000C4E7ABF101001FFA80FB08F108001FFA3D
:100DC00080F80836BBF1000FDCDC0498B0B1049861
:100DD000CDE9020ACDE9008605A80FC800F010F899
:100DE0008146B9F1000F01D04846A7E7524608995D
:100DF0000598FFF764FF08B112209FE700209DE7E8
:100E00002DE9FE4F83460E4691469A46DDE90D7860
:100E10000F9D012E0AD1CDE9007802955246494630
:100E200058460C9B00F092FDBDE8FE8F022E11D1BA
:100E3000CDE9007802955246494658460C9B00F091
:100E400057FE04460CB12046EEE72946584601F00D
:100E50002DF8E9E7CDE90078029552464946584613
:100E60000C9B00F0EBFD04460CB12046DCE7294664
:100E7000584601F01BF8D7E706E00020FFF70CFC0E
:100E80004FF4FA70FFF7B6FDF7E74FF6FF71016018
:100E900000218171017141710121C171704770B5EB
:100EA0000A4600211488A3B233E003F001046CB3B6
:100EB00004684E000325B540AC43046094794D00AE
:100EC000AC4005682C430460446801258D40AC4368
:100ED0004460446815798D402C43446084684E001A
:100EE0000325B540AC438460D4794D00AC4085689F
:100EF0002C438460C4684E000325B540AC43C460F5
:100F000054794D00AC40C5682C43C4605B104C1C48
:100F1000A1B2002BC9DC70BD0246002013690B4052
:100F20008B4200D000E001207047F0B50023002480
:100F30004D07ED0E02FA05F3CD105DB1456A4E077F
:100F4000F70E0F26BE40B5434562456A45EA0304E5
:100F500044620AE0056A4E07F70E0F26BE40B5430D
:100F60000562056A45EA03040462F0BD10B5044653
:100F7000206800F027FE204600F012FA01212068C8
:100F800000F05AF910BD0146486AC0B2704781624C
:100F900070472DE9F04104460D4616461F460021D4
:100FA0002846FFF761FD002202212846FFF7B9FD20
:100FB0006662A069A84201D1102100E000212185CC
:100FC000A069A84202D12068283001E020682430BE
:100FD0002062678504F120012846FFF771FD012298
:100FE00002212846FFF79DFD01212846FFF73CFD21
:100FF000BDE8F08121B9036862F38E33036003E03A
:10100000036862F3CF330360704710B5044620468F
:10101000E16900F009F810BD10B504462046A16949
:1010200000F002F810BD000070B505460C467C4982
:101030008C4201D102214EE0794914318C4201D118
:10104000202148E0764928318C4201D1491542E0FF
:1010500073493C318C4202D14FF400513BE070495E
:1010600050318C4202D14FF4003134E06C4964318C
:101070008C4202D14FF400112DE0694978318C4245
:1010800002D14FF0007126E066498C4201D16649D9
:1010900021E0644914318C4202D163491E311AE0C7
:1010A000604928318C4201D1604914E05D493C31EE
:1010B0008C4201D15E490EE05A4950318C4201D137
:1010C0005C4908E0574964318C4202D14FF08151AC
:1010D00001E04FF090510846FFF7DCFC002874D087
:1010E000002202212046FFF71CFD4D498C4201D110
:1010F00002214EE04A4914318C4201D1202148E0BE
:10110000474928318C4201D1491542E044493C31DC
:101110008C4202D14FF400513BE0414950318C42A6
:1011200002D14FF4003134E03D4964318C4202D1A8
:101130004FF400112DE03A4978318C4202D14FF042
:10114000007126E037498C4201D1374921E0354909
:1011500014318C4202D134491E311AE03149283110
:101160008C4201D1314914E02E493C318C4201D1ED
:101170002F490EE02B4950318C4201D12D4908E016
:10118000284964318C4202D14FF0815101E04FF087
:1011900090510846FFF76EFCAA69A24201D00122D5
:1011A00000E00022114600222868FFF723FF0021FB
:1011B0002046FFF759FCE868042807D0052806D028
:1011C000062828D0072828D126E028E000BF688913
:1011D0002989401A6881688928B901222021286854
:1011E00000F0D4F816E029896868084468606889C6
:1011F000FF2802DDFF20288101E0688928812B89F2
:10120000214628466A68FFF7C4FE0122402128686B
:1012100000F0BCF802E000BF00E000BF00BF70BDFE
:10122000086402400866024002000010000200103C
:101230000020001000000210026861F3000202604A
:10124000704710B504464FF48071206800F08CF8A8
:1012500058B1132020754FF48071206800F082F897
:1012600000228021206800F091F84FF4007120687E
:1012700000F07AF858B1132020754FF400712068FF
:1012800000F070F800228021206800F07FF84FF411
:101290008061206800F068F858B1132020754FF481
:1012A0008061206800F05EF800228021206800F054
:1012B0006DF84FF40061206800F056F858B1132023
:1012C00020754FF40061206800F04CF80022802166
:1012D000206800F05BF84FF48051206800F044F87B
:1012E00058B1132020754FF48051206800F03AF86F
:1012F00000228021206800F049F84FF40051206856
:1013000000F032F858B1132020754FF400512068D6
:1013100000F028F800228021206800F037F810BD86
:1013200010B50446E068082819D2DFE800F004058B
:10133000090A0E0F131400BF204600F037F90FE022
:1013400000BF204600F0D2FC0AE000BF204600F0BB
:10135000CDF805E000BF204600F085FC00E000BFAE
:1013600000BF10BDC161704702469069084008B1D6
:10137000012070470020FCE7036823F001030360AD
:101380000261036861F30B23036070471AB10368BD
:101390000B43036002E003688B4303607047000067
:1013A0001CB504464A49206888427DD1012149483C
:1013B000FFF732FA01214848FFF72EFA012146488B
:1013C000FFF72AFA04220A214448FFF7AEFD04225F
:1013D0000B214248FFF7A9FD01208DF807000220EC
:1013E0008DF8060001208DF8040000208DF805001E
:1013F0004FF48060009069463848FFF750FD4FF485
:101400000060009069463548FFF749FD002211460B
:10141000212000F06DFE00221146222000F068FE1F
:1014200000221146382000F063FE002211463920C8
:1014300000F05EFE012128481530FFF7EDF928483D
:10144000A06127481430E061A069FFF773FBE069F1
:10145000FFF770FB206828302062002161621021B4
:1014600021854FF6FF71618500212C200155012156
:101470002D20015500212E2001552F20015530200F
:1014800001553120015504F12001A069FFF718FB37
:1014900004F12001E069FFF713FB13211048FC3031
:1014A000FFF787FB122100E011E00E48FFF781FBF8
:1014B00001210B480838FFF775FB0B4A0F21206804
:1014C000FFF75AFFA0220021206800F055FB1CBD49
:1014D00000580040160040000100300000040240A7
:1014E00008640240086502404E4C508070B50446C6
:1014F00010212068FFF738FF88B110212068FFF71E
:1015000031FF012220212068FFF740FF204600F034
:1015100042FB6089002847D01120207544E08021DB
:101520002068FFF721FF00B3002240212068FFF769
:101530002DFF6089B8B1206800F0A2FC05460022AA
:101540002946204600F04AFC208D102805D10122B2
:1015500000212068FFF74EFD26E001221146206899
:10156000FFF748FD20E00D2070BD20212068FFF727
:10157000FBFEC8B120212068FFF7F4FE204600F0F2
:1015800053FB10212068FFF7EFFE18B110212068EF
:10159000FFF7E8FE204600F0FEFA0022F621206860
:1015A000FFF7F4FE012020610020DDE770B504465E
:1015B00010212068FFF7D8FE60B110212068FFF7E6
:1015C000D1FE204600F0E7FA608900286ED0112095
:1015D00020756BE002212068FFF7C6FE68B16368E2
:1015E0005A1C626019782068FFF7D1FC6089401EA0
:1015F00060812089401E208158E080212068FFF70B
:10160000B3FE78B1208958B9608948B1206800F0EC
:1016100037FC054600222946204600F0DFFB45E066
:101620000D2070BD04212068FFF79EFE68B1206880
:10163000FFF7A9FC6268511C616010706089401E50
:1016400060812089401E208130E040212068FFF722
:101650008BFE60B1608940B920684068C0F340608B
:1016600020BB206800F005FC20E00E20D9E72021F7
:101670002068FFF779FEC8B120212068FFF772FECD
:10168000204600F0D1FA10212068FFF76DFE18B156
:1016900010212068FFF766FE204600F07CFA002249
:1016A000F6212068FFF772FE012020610020B8E7D4
:1016B0002DE9F04104460F4615469846012F04D106
:1016C000E9B22068FFF763FC12E0290A2068FFF7FF
:1016D0005EFC434601220221204600F0F8FB06464C
:1016E00016B13046BDE8F081E9B22068FFF74FFC43
:1016F0000020F7E72DE9F84F04460D4616461F4631
:10170000DDE90B9ADDF82880C4F80480A4F80A907B
:1017100000202075534600224FF40041204600F07F
:10172000D6FB10B10120BDE8F88F4FF400500090B7
:1017300000232A463146206800F0A8FB53460122C8
:101740000221204600F0C3FB08B10220EBE753461C
:101750003A4629462046FFF7ABFF08B10320E2E7EF
:10176000534600224021204600F0B1FB08B104207E
:10177000D9E74FF410523146204600F02FFB27E006
:10178000534601220421204600F0A1FB08B10520A8
:10179000C9E72068FFF7F7FB6268511C61601070B1
:1017A0006089401E60812089401E2081208978B98F
:1017B000608968B1534600228021204600F087FBF3
:1017C00008B10620AFE700223146204600F006FBB4
:1017D00060890028D4DC534601222021204600F0F5
:1017E00076FB08B107209EE720212068FFF7BAFDAD
:1017F000204600F019FA002095E72DE9F84F04463D
:101800000D4616461F46DDE90B9ADDF828800520B7
:10181000E06000202061C4F80480A4F80A902075DC
:10182000534600224FF40041204600F050FB10B117
:101830000120BDE8F88F4FF40050009000232A46A5
:101840003146206800F022FB534601220221204647
:1018500000F03DFB08B10220EBE753463A4629462B
:101860002046FFF725FF08B10320E2E75346002298
:101870004021204600F02BFB08B10420D9E70022CC
:1018800001212068FFF7B6FB4FF410533246204683
:10189000E16900F0C2FA012290212068FFF776FD8D
:1018A000012211462068FFF7A5FB0020C1E72DE9C2
:1018B000F84F04460D4616461F46DDE90B9ADDF843
:1018C00028800120E06000202061C4F80480A4F892
:1018D0000A902075534600224FF40041204600F044
:1018E000F6FA10B10120BDE8F88F4FF400500090D7
:1018F00000232A463146206800F0C8FA53460122E8
:101900000221204600F0E3FA08B10220EBE753463B
:101910003A4629462046FFF7CBFE08B10320E2E70E
:10192000534600224021204600F0D1FA08B104209D
:10193000D9E74FF410523146204600F04FFA012209
:10194000F4212068FFF722FD0020CCE72DE9F047C5
:1019500004460D4616461F46DDE9099ADDF820804B
:10196000C4F8048009EB050060810020207553460F
:1019700000224FF40041204600F0A9FA10B10120E6
:10198000BDE8F0874FF400523146204600F026FAB9
:10199000534601220221204600F099FA08B10220A4
:1019A000EEE753463A4629462046FFF781FE08B146
:1019B0000320E5E72089401B20816089401B60816E
:1019C00027E0534601220221204600F080FA08B1A8
:1019D0000420D5E763685A1C626019782068FFF715
:1019E000D6FA2089401E20816089401E60812089AE
:1019F00078B9608968B1534601228021204600F001
:101A000066FA08B10520BBE700223146204600F007
:101A1000E5F960890028D4DC5346012220212046C4
:101A200000F055FA08B10620AAE720212068FFF748
:101A300099FC204600F0F8F80020A1E72DE9F84FC6
:101A400004460D4616461F46DDE90B9ADDF8288050
:101A50000420E06000202061C4F80480A4F80A900B
:101A60002075002211462068FFF7C4FA5346002271
:101A70004FF40041204600F02AFA10B10120BDE8E1
:101A8000F88F4FF4005000904FF080732A46314693
:101A9000206800F0FBF9534601220221204600F0A5
:101AA00016FA08B10220EAE753463A46294620468C
:101AB000FFF7FEFD08B10320E1E753460022802135
:101AC000204600F004FA08B10420D8E7002332468B
:101AD0002046A16900F0A1F9012290212068FFF7BA
:101AE00055FC012200212068FFF784FA0020C6E798
:101AF0002DE9F04704460D4616461F46DDE9099AD2
:101B0000DDF820800020E0602061C4F8048009EB4B
:101B10000500608100202075534600224FF40041EB
:101B2000204600F0D4F910B10120BDE8F0874FF451
:101B300000523146204600F051F95346012202215D
:101B4000204600F0C4F908B10220EEE753463A46B9
:101B500029462046FFF7ACFD08B10320E5E72089C0
:101B6000401E20816089401E60810122F221206890
:101B7000FFF70CFC0020D8E7836861F38A238360B9
:101B8000836862F309038360836823F4004303F5E9
:101B900000438360704710B5044602212068FFF7B8
:101BA000E3FB10B100202168886201212068FFF763
:101BB000DBFB30B92068806920F00100401C2168FF
:101BC000886110BD10B504461348844208D1012134
:101BD0001248FEF747FE00211048FEF743FE1AE0C8
:101BE0000F4884420AD101210C48401CFEF73AFEFE
:101BF00000210A48401CFEF735FE0CE009488442EB
:101C000009D101210548801CFEF72CFE0021034864
:101C1000801CFEF727FE10BD005400401500200078
:101C200000580040005C0040016849686FF30901FA
:101C3000026851600168496821F48051026851606E
:101C40000168496821F47F010268516001684968B0
:101C500021F08071026851600168496821F4806157
:101C600002685160704710B5044610212068FFF7E4
:101C70007BFB20B110212068FFF774FB34E00821C2
:101C80002068FFF771FB20B108212068FFF76AFB8D
:101C90002AE020212068FFF767FB28B32021206875
:101CA000FFF760FB0022FE212068FFF76FFB204654
:101CB000FFF7BAFF2046FFF76EFF04212068FFF709
:101CC00053FB78B12068FFF75EF96268511C6160D0
:101CD00010702089002805DD6089401E6081208900
:101CE000401E208101202061002010BD10B5044657
:101CF00010212068FFF738FB70B1608938B92046A1
:101D0000FFF749FF10212068FFF72CFB64E010214A
:101D10002068FFF727FB5FE008212068FFF724FB1E
:101D200020B108212068FFF71DFB55E00221206843
:101D3000FFF71AFB78B1608900284DDD6168481C07
:101D400060600878216888622089401E208160894F
:101D5000401E608140E004212068FFF705FB80B150
:101D60006089002838DD2068FFF70DF96268511C92
:101D7000616010706089401E60812089401E208152
:101D80002AE020212068FFF7EFFA28B320212068FD
:101D9000FFF7E8FA0022FE212068FFF7F7FA204655
:101DA000FFF742FF2046FFF7F6FE04212068FFF709
:101DB000DBFA78B12068FFF7E6F86268511C6160D1
:101DC00010702089002805DD6089401E608120890F
:101DD000401E208101202061002010BDF8B504467E
:101DE0000E4615466089FF280BDDFF2020810095F7
:101DF0002189CAB24FF080733146206800F046F85E
:101E00000AE06089208100952189CAB24FF00073F1
:101E10003146206800F03AF8F8BDF8B504460F46A0
:101E200016461D466089FF2811DDFF202081238989
:101E3000394620466268FFF7ACF800952189CAB29E
:101E40004FF080733146206800F020F810E0608980
:101E500020812389394620466268FFF79AF8009569
:101E60002189CAB24FF000733146206800F00EF8A5
:101E7000F8BD416821F4804101F58041416070471F
:101E800001464868C0F309007047000070B5044679
:101E9000049D6068044E304041EA03062E433043FF
:101EA00040EA0240606070BD009800FC024605E018
:101EB000081EA1F1010101D112207047106901280B
:101EC000F6D1107D08B1107DF7E70020F5E72DE988
:101ED000F04104460F4615461E46B7F5004F0FD198
:101EE00007E0301EA6F1010603D112202075BDE8DF
:101EF000F08139462068FFF737FA0028F1D12EE04B
:101F000027E005F0010058B110212068FFF72CFAF6
:101F100030B110212068FFF725FA11202075E6E77F
:101F200005F0020070B120212068FFF71DFA48B1CA
:101F300020212068FFF716FA2046FFF775FE1020D3
:101F40002075D4E7301EA6F1010602D112202075BB
:101F5000CDE739462068FFF707FA0028D1D00020E6
:101F6000C5E700001FB500F03BF9032000F024F99D
:101F7000FEF7E2FA5648574908600846FEF7F6FFB2
:101F8000A4E000BFFEF710FB0028FBD16FF070400B
:101F90000C21514A0023CDE90032CDE90210A023E3
:101FA000012211464B48FEF7A1FE041E02D0204636
:101FB000FEF762FF0120FEF71DFD6FF070400C215F
:101FC000464A0023CDE90032CDE90210A0230122C8
:101FD00011464048FEF7F2FD041E02D02046FEF7EF
:101FE0004BFF0520FEF706FD6FF070400C213C4AC8
:101FF0000023CDE90032CDE90210A0230122022105
:102000003448FEF773FE041E02D02046FEF734FF6C
:102010000120FEF7EFFC6FF070400C21314A0023E5
:10202000CDE90032CDE90210A02301220221294886
:10203000FEF7C4FD041E02D02046FEF71DFF05205A
:10204000FEF7D8FC6FF070400C21274A0023CDE941
:102050000032CDE90210A023012203211D48FEF722
:1020600045FE041E02D02046FEF706FF0120FEF7C3
:10207000C1FC6FF070400C211C4A0023CDE90032F6
:10208000CDE90210A023012203211248FEF796FD9C
:10209000041E02D02046FEF7EFFE0C220F490E4828
:1020A000FEF714FB78B90C220E490D48FEF70EFB23
:1020B00048B90C220D490C48FEF708FB18B901205D
:1020C000FEF7D6FA02E02046FEF7D6FE59E70000FA
:1020D000005800407C000020000000205800002034
:1020E0000C00002064000020180000207000002078
:1020F0002DE9F0470B4614464FF0000C00BF2C4A68
:102100001268C2F302211D4626460A46C2F107099B
:10211000B9F1040F02D94FF0040901E0C2F1070937
:10212000C84602F10409B9F1070F02D24FF00009C5
:1021300001E0A2F103094F464FF0010909FA08F93D
:10214000A9F1010909EA050909FA07F94FF0010A9D
:102150000AFA07FAAAF1010A0AEA060A49EA0A098A
:10216000CC4601466246002904DB15072E0E114DB0
:102170006E5407E015072F0E0D4D0C3501F00F06BC
:10218000361FAF5500BF014600290DDB00BF00BF61
:1021900001F01F050122AA404D09AD0005F1E0251F
:1021A000C5F8002100BF00BF00BFBDE8F0870000F8
:1021B0000CED00E000E400E000BF00F00702064B79
:1021C00019684FF6FF031940044B0B4343EA022101
:1021D000014B196000BF70470CED00E00000FA05EC
:1021E00010B5FEF789FB01212148FEF715FB2148B8
:1021F000006920F00700401C1E4908611E48006865
:1022000020F00300401C1C49086001210846FEF72D
:102210009FFA00BFFEF7E8FA0028FBD00223012254
:1022200090211046FEF744FB01210220FEF790FAB0
:1022300000BF1920FEF7C0FA0128FAD10020FEF7EE
:1022400055FA0420FEF766FA0420FEF759FA012039
:10225000FEF76AFA0220FEF78BFB00BFFEF7A6FB33
:102260000228FBD10020FEF75FFA00F007F810BD4E
:102270001C00400000700040603C02402DE9FC5F03
:10228000002400250026A146A246A3460020019076
:10229000FEF78CFB0090009820B1012814D0022892
:1022A00041D115E02B480068C0F3803040B1294887
:1022B0000068C0F3003018B127482849086002E0E0
:1022C00027482649086032E02548244908602EE066
:1022D00020489C380068C0F380591E489C3800682C
:1022E000C0F388141B489C38006800F00F0519489B
:1022F0009C380068C0F302401A490E5CB9F1000F27
:1023000002D1DFF85CA001E0DFF854A005FB06FC79
:10231000AAFB04700146624600233846FDF7E7FF3A
:102320000E49086003E00E480C49086000BF00BF7A
:10233000084898380068C0F3031B0B4810F80B00DE
:102340000190064800680199C84004490860BDE84A
:10235000FC9F0000A0380240006CDC02540000200A
:1023600000127A00AE2300089E230008042808D13A
:102370004FF0E021096941F004014FF0E0221161C2
:1023800007E04FF0E021096921F004014FF0E0225D
:10239000116170474FF04070E1EE100A7047000085
:1023A0000000000000000102030406070809010202
:1023B00004081020D423000800000020580000006A
:1023C000480200082C24000858000020B80600002D
:1023D000640200080102030405060708090A0B0C41
:1023E000102030405060708090A0B0C01122334463
:1023F0005566778899AABBCC00080240000C0240C1
:10240000000C02400010004000800000020030007C
:102410000300300003003000000000000000000056
:0C242000000000000100000000127A0023
:040000050800020DE0
:00000001FF
