:020000040800F2
:1000000030C10420FD020008170E0008C30D0008CF
:10001000150E0008AD0C0008891000080000000053
:100020000000000000000000000000001B0E00089F
:10003000350D000800000000190E00081D0E000814
:100040001703000817030008170300081703000828
:100050001703000817030008170300081703000818
:100060001703000817030008170300081703000808
:1000700017030008170300081703000817030008F8
:1000800017030008170300081703000817030008E8
:1000900017030008170300081703000817030008D8
:1000A00017030008170300081703000817030008C8
:1000B00017030008170300081703000817030008B8
:1000C00017030008170300081703000817030008A8
:1000D00017030008490F000817030008810F0008E4
:1000E0001703000817030008170300081703000888
:1000F0001703000817030008170300081703000878
:100100001703000817030008170300081703000867
:1001100017030008170300089D0E0008310F0008A0
:100120001703000817030008090D0008170300084B
:100130001703000817030008170300081703000837
:100140001703000817030008170300081703000827
:100150001703000817030008000000001703000839
:10016000170300081703000800000000000000004B
:100170001703000817030008170300080000000019
:100180000000000017030008170300081703000809
:10019000170300080000000000000000000000003D
:1001A000000000000000000000000000170300082D
:1001B00017030008000000001703000800000000FB
:1001C000000000000000000000000000000000002F
:1001D00000000000000000001703000817030008DB
:1001E0001703000817030008170300081703000887
:1001F0001703000817030008170300081703000877
:1002000017030008170300081703000800F002F89E
:1002100000F064F80AA090E8000C82448344AAF13C
:100220000107DA4501D100F059F8AFF2090EBAE83A
:100230000F0013F0010F18BFFB1A43F0010318471A
:10024000B4330C00D4330C000A444FF0000C10F807
:10025000013B13F0070408BF10F8014B1D1108BF44
:1002600010F8015B641E05D010F8016B641E01F8E4
:10027000016BF9D113F0080F1EBF10F8014BAD1C34
:100280000C1B09D16D1E58BF01F801CBFAD505E052
:1002900014F8016B01F8016B6D1EF9D59142D6D3AC
:1002A000704700000023002400250026103A28BFD4
:1002B00078C1FBD8520728BF30C148BF0B607047D8
:1002C000642900F03B81732900F07F830020704790
:1002D0001FB52EF00FFB1FBD10B510BD00F0C2FB07
:1002E0001146FFF7F5FF25F04DFA00F0E0FB03B4EF
:1002F000FFF7F2FF03BC03F0D2F800000948804783
:1003000009480047FEE7FEE7FEE7FEE7FEE7FEE7F7
:10031000FEE7FEE7FEE7FEE704480549034A054B12
:1003200070470000210E00080D02000830A10420D3
:1003300030C1042030A10420704753EA020C00F0C1
:1003400069802DE9F04B4FF00006002B1FBFB3FA78
:1003500083F503FA05F424FA05F65E4012BF16434E
:10036000B2FA82F502FA05F4C5F120051EBF22FAA1
:1003700005FC44EA0C04203556EA044C4FEA1444C8
:1003800018BF641C4FF000084FF00009904271EB59
:10039000030C39D3002919BFB1FA81F701FA07F626
:1003A000B0FA80F700FA07F6C7F120071EBF20FA5F
:1003B00007FC46EA0C062037B6FBF4FCA7EB050762
:1003C000103F07F01F0BCBF120060CFA0BFB2CFAA9
:1003D00006F644BFB3460026202FA4BF5E464FF06A
:1003E000000B5BEA060C08BF4FF0010B19EB0B0981
:1003F000ABFB027C48EB0608C01B06FB02CC0BFBE8
:1004000003CC71EB0C01C1E70B460246414648465E
:10041000BDE8F08B13B54FF000004FF00001AFF3D3
:100420000080BDE81C4070470FB4044910B503AA12
:10043000029800F0CFFA10BC5DF814FB34000020E5
:100440000FB41CB5074B06AA7B446946009005987B
:1004500000F089FA0020694600F098FA1CBC5DF8AB
:1004600014FB0000410500000FB41CB50C0007AAE6
:10047000009001D02044401E074B7B446946019008
:10048000069800F070FA002C03D06946002000F0B6
:100490007DFA1CBC5DF814FB1905000070B504461C
:1004A00085690068C10601D5302600E02026C00716
:1004B00007D070BDD4E9012130469047206A401C26
:1004C00020626D1EF6D570BD70B504468569007852
:1004D000C00707D170BDD4E9012120209047206AD0
:1004E000401C20626D1EF6D570BD70B50C460546E9
:1004F000012A05D02878800600D5EA69002302E0A9
:10050000012305E05B1C934202D2E05C0028F9D194
:10051000A869E618C01AA861286A18442862284603
:10052000FFF7BCFF04E0D5E9012114F8010B904767
:10053000B442F8D32846FFF7C7FF70BD2DE9F0415C
:100540000646002410687529314616A510D0AFF371
:100550000080002802DA404213A507E031688A07CC
:1005600001D512A502E0490704D511A5012401E037
:10057000AFF3008000210A2206F1240709E0B0FB56
:10058000F2FCB0FBF2F302FB1C003030785418464A
:10059000491C0028F3D123462A463046BDE8F041E5
:1005A00000F082B9000000002D0000002B000000C8
:1005B000200000002DE9F05F894604464FF0000A54
:1005C000DFF824B1FB44C0F820A02046E16888474A
:1005D00000287DD0252806D0D4E901219047206A43
:1005E000401C2062F1E700255F462046E16888470D
:1005F0002028064607DB312E05D2B81910F8200C4A
:1006000008B10543F1E7A80701D525F00405C4F8B2
:100610001CA00027C4F818A02A2E09D0304600F0EC
:10062000BBFD38B304EB8708303EC8F8186019E00A
:1006300059F8041B204604EB87029161E168884762
:10064000012F064618D1E069002820DA25F02005A0
:100650001DE0D8F8180000EB800006EB40003038B1
:10066000C8F818002046E1688847064600F094FD67
:100670000028EED1012F0AD02E2E08D12046E168A5
:1006800088477F1C0646022F45F02005C4DBA06981
:10069000002803DA404245F00105A061E80701D0D7
:1006A00025F01005A6B1A6F14100192802D8203680
:1006B00045F400654A463146204625604D46FFF721
:1006C000FFFD60B1012807D0ED1D25F0070000E017
:1006D00007E000F1080978E705F1040975E73046FD
:1006E0007AE7206ABDE8F09F4C2B0C0030B5054638
:1006F0000B462A4613F8014B12F8010B08B1A04231
:10070000F8D01CB1002802D06D1CF1E7284630BD9E
:1007100040EA0103024630B59B0710D14FF0013487
:1007200000E008C208C91D1B9D4315EAC41FF8D08C
:1007300013F0FF0102F8011B0DD01B0AF8E711F8B6
:10074000013B002B02F8013B05D011F8013B002BC7
:1007500002F8013BF3D130BD10B5431C02E010F8A4
:10076000011B71B18107FAD14FF0013202C88C1A16
:100770008C4314EAC211F9D0C01A0A0603D0C01E75
:1007800010BDC01A10BD0A0401D0801E10BD0902A0
:10079000FCD0401E10BD032A40F2308010F0030C44
:1007A00000F0158011F8013BBCF1020F624498BFC4
:1007B00011F801CB00F8013B38BF11F8013BA2F161
:1007C000040298BF00F801CB38BF00F8013B11F0DC
:1007D000030300F01181083AC0F0088051F8043B8F
:1007E000083A51F804CBA0E80810F5E7121D5CBFE9
:1007F00051F8043B40F8043BAFF30080D20724BF1C
:1008000011F8013B11F801CB48BF11F8012B24BFAF
:1008100000F8013B00F801CB48BF00F8012B7047FE
:100820004FF0013C50F8042B51F8043B9A4221D17F
:10083000A2EB0C03934313EACC1317D150F8042B0B
:1008400051F8043B9A4215D1A2EB0C03934313EAEF
:10085000CC130BD150F8042B51F8043B9A4209D128
:10086000A2EB0C03934313EACC13DBD04FF0000050
:10087000704700BFD01A01BAB1FA81F101F0180136
:1008800022FA01F0CB40C1F12001DBB2C0B2C01AA4
:100890002CFA01F3D11A914311EAC311E6D1704742
:1008A00070477047704770472DE9F0470D469946ED
:1008B0009246044600F124080168880604D5E069E0
:1008C00021F01001216000E00120A84201DD471B5A
:1008D00000E00027A1697A1902EB0900081AA0615B
:1008E0002078C00602D42046FFF7D8FD002608E095
:1008F000D4E901211AF806009047206A401C761CB2
:1009000020624E45F4DB2078C0060AD52046FFF76A
:10091000C5FD06E0D4E9012130209047206A401C43
:100920002062381EA7F10107F4DC07E0D4E90121B9
:1009300018F805009047206A401C2062281EA5F187
:100940000105F3DC2046FFF7BFFD2078000602D545
:100950000220BDE8F0870120FBE7000001694A1C86
:1009600002610878704700B58FB0CDE901310021F0
:10097000059105497944CDE9031011466846FFF712
:1009800019FE0FB000BD0000E5FFFFFF0A6802F886
:10099000010B0A607047D1E900239A4202D2531C2E
:1009A0000B601070704710B5436913B1AFF300804E
:1009B00001E0FFF79AFD012010BD127800F124013B
:1009C0000A7000224A700122EDE711684FF0FF32F1
:1009D000E9E70000074B70B50D467B44FFF7C3FF06
:1009E0000446284600F03AF810B14FF0FF3070BDD1
:1009F000204670BD0BCA000010B5203AC0F00B8035
:100A0000B1E81850203AA0E81850B1E81850A0E812
:100A10001850BFF4F5AF5FEA027C24BFB1E818506C
:100A2000A0E8185044BF18C918C0BDE810405FEADC
:100A3000827C24BF51F8043B40F8043B08BF704758
:100A4000D20728BF31F8023B48BF11F8012B28BF5D
:100A500020F8023B48BF00F8012B7047007B00F0F4
:100A600080007047754600F02BF8AE4605006946D9
:100A7000534620F00700854618B020B5FFF74CFC20
:100A8000BDE820404FF000064FF000074FF000088F
:100A90004FF0000B21F00701AC46ACE8C009ACE810
:100AA000C009ACE8C009ACE8C0098D46704710B574
:100AB0000446AFF300802046BDE81040FFF717BCA6
:100AC00000487047D0A0042030B589B000243348D6
:100AD000029403940494059404730121304804F0B3
:100AE000A5FF01212F4804F0A1FF68460DF0A2FCEC
:100AF0008DF804408DF8054002208DF806008DF831
:100B00000700C002284D0090694628460DF09CFC65
:100B100002220C2128460DF0E0FC02A804F002FF9E
:100B2000059822494000B0FBF1F0401E82B22048F7
:100B3000204D40F2E731028028462CF0A5FD00212F
:100B400028462CF0C0FD002128462CF0B7FD06A851
:100B50002CF078FE06218DF8181001218DF819402F
:100B60008DF81D108DF81B4006AA002128462CF098
:100B7000EBFD4FF4FA72002128462CF08CFD012287
:100B8000002128462CF0C0FD012128462CF063FEF0
:100B9000002128462CF09CFD09B030BDD80400206F
:100BA00003004000010030000004024040420F00FA
:100BB00040000020000C004070B51C4C207800283C
:100BC0001FBFA388002B207B012808BF70BD62785F
:100BD000164917484FF00005098901F1010189B252
:100BE000C2B1012A18BF70BD2181994238BF70BDC2
:100BF000E18841B16289521C92B262818A4222BF6D
:100C00002570A58070BD25816570BDE8704001210B
:100C10002CF05EBD21816288914238BF70BD0021F9
:100C20002CF056FD25810120607070BDD804002095
:100C3000000C00400349B1FBF0F10348028803486F
:100C40002CF022BD40420F0040000020000C00406C
:100C5000002808BF70470A4B93F80CC0BCF1010F85
:100C600008BF704758809980DA8000201881588129
:100C7000587001201870014602482CF029BD000070
:100C8000D8040020000C0040064800210170818833
:100C900000291EBFC088002870474FF0000102489D
:100CA0002CF016BDD8040020000C0040FEE7000028
:100CB000002808BF704701280CD0022804BF0B4849
:100CC0007047032818BF042804D005281CBF062835
:100CD000072802D14FF00000704710B540F22B21D9
:100CE00003A000F06AF8002010BD0000EC05002011
:100CF0002E2E5C2E2E5C2E2E5C6273705C627370E6
:100D00005F756172742E630010B54FF4007005F0CA
:100D1000E1F80021054805F0D7F8054800680028EB
:100D200008BF10BDBDE8104013F056B93064024052
:100D3000780200207047000010B50446FFF70CFD54
:100D400082B22146022004F003FD0222BDE81040D9
:100D500001A1104604F0FCBC0D0A0000F8B50E46D7
:100D600005460024FFF7F8FC0746FF280BD81EB104
:100D70003146032003F026FC03F06CFA2EB1032069
:100D800003F044FA08B10020F8BD6946022004F0DF
:100D9000B8FC0028F0D09DF80010002004F026FDDB
:100DA000285D9DF80010884218BF0024E4D1601C23
:100DB00084B2BC42E0D10120F8BD002908BF7047D1
:100DC000FEE7FEE770B408281ED20022104DFF2473
:100DD000114655F831301B6905EBC10CBCF80460B5
:100DE000334018BF01239CF806C09C4502D1521C19
:100DF000D2B20C46491CC9B20829EAD3012A01BF64
:100E00008442012070BC70474FF0000070BC7047F6
:100E1000B8E90208FEE77047704770477047000066
:100E20001648016841F4700101601548016841F0FD
:100E300001010160016811F0020FFBD011490A683D
:100E400022F003020A600A6812F00C0FFBD10022A4
:100E50000A60016821F4502121F0807101600B4982
:100E6000094808600A4802600A494FF41F000860F8
:100E700009494FF0006008607047000088ED00E00D
:100E800000380240083802400230030004380240B3
:100E9000A03802400C38024008ED00E070B5214D4A
:100EA000012128462CF01CFC002808BF70BD1E4CF8
:100EB000E068401CE060A0684FF0010C28B1A06819
:100EC000401EA06008BF84F800C00022174802EB53
:100ED000420100EB81014B6853B14B685B1E4B60D4
:100EE00006D181F801C00B78012B04BF8B684B60E1
:100EF000511CCAB2042AEAD36068401C606003F047
:100F000060FB6078401CC0B260700A2803D30020E8
:100F1000607003F04FFB2846BDE8704001212CF0C3
:100F2000DCBB00000010004080000020BC05002059
:100F300003490020086003480168491C01607047AC
:100F4000101400400800002010B50B4CE06810F0B1
:100F5000200F08BF10BD202120462DF01FF90028CA
:100F600008BF10BD20462DF00DF90146BDE8104028
:100F700002482DF00AB9000000100140004800406E
:100F80002DE9F0413D4C20680568C1684FF000062E
:100F900011F0200F18BF15F0200F18D02DF0F2F827
:100FA000E28AA168C0B28854E18A491C89B2E18210
:100FB000E2898A4298BFE682618B92B2914202D264
:100FC000618B491C6183616A002918BF88472068CA
:100FD000C1682B4F11F0800F18BF15F0800F16D08D
:100FE000A18A002933D0012084F82800618A606832
:100FF000415C20682DF0C9F8608A401C80B2608294
:10100000A189884228BF6682A08A401EA08215F06E
:10101000400F08BFBDE8F0812068C16811F0400FA3
:1010200008BFBDE8F081A18AD9B1628A6168895C94
:101030002DF0ABF8608A401C80B26082A1898842A2
:1010400028BF6682A08A401EA082BDE8F0810022EF
:101050000C492DF0F1F80122394620682DF0ECF80A
:10106000D5E7002239462DF0E7F8206A002818BF9E
:10107000804784F82860BDE8F0810000EC0500207E
:1010800006000C0007000C00FEE7F0B4D0F810C01A
:10109000DCF8080002688A429CBF828891422DD801
:1010A000DCF8146032688A4208BF706813D0846824
:1010B000008A00238DB2421E0BD49818401034F8D9
:1010C0001070AF4238BF431C88BF421E03D093420A
:1010D000F3DD4FF0FF30B0F1FF3F0FD0DCF804201C
:1010E000706002EBC002DCF8140001601168DCF8EB
:1010F0000000F0BCC1F3130108447047F0BC0020AD
:1011000070472DE9F0010469A068036893429CBF11
:1011100083889A423CD866693368934208BF7068F6
:1011200016D08568008A97B24FF0000C431E0DD48C
:101130000CEB0300401035F81080B84538BF00F1C3
:10114000010C88BF431E03D09C45F1DD4FF0FF30FA
:10115000B0F1FF3F1CD06368706003EBC0036069AF
:1011600002601868000D8880587908811879C88055
:1011700093F90600488193F907008881608A420A42
:10118000887B62F303008873BDE8F001012070479B
:10119000BDE8F0010020704730380A2801D2012054
:1011A000704700207047000010B54021074801F04B
:1011B000CFFB00220A21064823F002FE054CA06066
:1011C00002F0E2FD0020207010BD0000D40E0020CF
:1011D000B53D0008E801002030B4B1F90030B2F9A3
:1011E00000C06345D8BF63460380B1F902C0B2F9BD
:1011F0000240A445D8BFA446A0F802C0B1F90440FB
:10120000B2F90450AC42A8BF2C468480B1F9061054
:10121000B2F906209142A8BF1146C1800120A34225
:1012200003DC6145A4BF30BC7047002030BC704770
:10123000F8B50D460446B0F90000B1F900101646A5
:1012400088424BDBB4F90210B5F90220914245DB2C
:10125000B4F90410B5F904208A423FDBB4F9061052
:10126000B5F906208A4239DBB6B3ADF800006088D4
:10127000ADF8020032466946284600F09DF8002885
:1012800008BFF8BDA088ADF800006088ADF8020086
:1012900032466946284600F08FF8002808BFF8BD9E
:1012A0002088ADF80000E088ADF8020032466946BB
:1012B000284600F081F8002808BFF8BDA088ADF8E6
:1012C0000000E088ADF8020032466946284600F08A
:1012D00073F8002808BFF8BD0120F8BD0020F8BD54
:1012E000B0F90020B1F904309A4213DCB0F90420BF
:1012F000B1F9003093420DDCB0F90220B1F90630AB
:101300009A4207DCB0F90600B1F902108842A4BF86
:101310000120704700207047F8B50D460446B0F92B
:101320000400B1F900101646884243DBB4F9060008
:10133000B5F9021088423DDBB4F90000B5F904109C
:10134000814237DBB4F90210B5F906208A4231DB5D
:1013500076B3ADF800006088ADF802003246694609
:10136000284600F029F818BBA088ADF80000608876
:10137000ADF8020032466946284600F01DF8B8B9BB
:101380002088ADF80000E088ADF8020032466946DA
:10139000284600F011F858B9A088ADF80000E088A0
:1013A000ADF8020032466946284600F005F808B15B
:1013B0000020F8BD0120F8BD70B50E46B1F900104F
:1013C000B0F9003082B0144605469942A4BFB5F981
:1013D0000400884241DBB6F90220B5F902108A42C6
:1013E000A4BFB5F906C0944537DB002C72DDC01AE6
:1013F000401C00B200EBD0704210ACEB0100401C6E
:1014000000B200EBD07040109042C8BF104684423A
:10141000C8BF0446ADF80030288800222044ADF84B
:1014200004006888ADF80200688831462044ADF8B1
:1014300006006846FFF7C0FF90B1BDF804003146D2
:101440002044ADF80400BDF806002044ADF80600C5
:1014500068461FF07BFE02B070BD02B0002070BD78
:10146000E8880022001BADF80200E888ADF806000D
:1014700031466846FFF7A0FF78B1BDF80400314659
:101480002044ADF80400BDF80200001BADF80200D6
:1014900068461FF05BFE02B070BDA8880022001BEA
:1014A000ADF80000A888ADF8040031466846FFF7A3
:1014B00083FF80B1BDF800003146001BADF800008D
:1014C000BDF80200001BADF8020068461FF03EFEAA
:1014D00002B070BD1CE06888ADF802006888002288
:1014E0002044ADF8060031466846FFF765FF78B145
:1014F000BDF800003146001BADF80000BDF8060045
:101500002044ADF8060068461FF020FE02B070BD12
:1015100002B0012070BDB1F90030B2F900C06345DE
:10152000A8BF63460380B1F90230B2F902C0634537
:10153000A8BF63464380B1F90430B2F904C06345E3
:10154000D8BF63468380B1F90610B2F906209142F4
:10155000D8BF1146C18070472DE9F04F85B00446D1
:1015600023F0DBFB4FF0000ADFF8CC818346CDF897
:1015700000A044B1E068C8F80400204623F0F4FC61
:10158000D8F8040003E012F02DFDC8F8040000694B
:101590001FF042FDD8F804004069002818BF1FF072
:1015A0003BFDD8F80400C0691FF036FDD8F80400F0
:1015B000006A1FF031FDD8F804000169002902BF5C
:1015C000A0F850A105B0BDE8F08F0025B0F850019B
:1015D000002888BF4FF0010962D9D8F804004119EA
:1015E00091F83011002954D1FFE7B0F850010024E0
:1015F00000284ED9D8F80400011991F830110029BB
:1016000040D1A5423ED000EBC40100EBC500303014
:101610003031FFF765FEA8B3D8F8040000EBC40131
:1016200001F1300200EBC50000F130016846FFF720
:1016300072FF68460FF017FF0646D8F8040000EB6B
:10164000C50030300FF00FFF0746D8F8040000EB5C
:10165000C40030300FF007FF3844864212D2D8F869
:101660000410BDF8002001EBC5000286BDF8022081
:101670004286BDF804208286BDF80620C28608197D
:1016800080F83091D8F80400641CB0F85001A042F2
:10169000B0D8D8F804006D1CB0F85001A8429CD80E
:1016A0001FF0A4FED8F80400B0F85011D9B30168B7
:1016B000097C11F0020F17D012F0F6FC401E04B2A4
:1016C000D8F8040012F0A6FC401E03B20022114616
:1016D00002A800940FF0FBFED8F8040002A90268EB
:1016E000926B516005F024FBD8F804004FF4807130
:1016F00030301AF00DFCD8F80400202100F5987065
:101700001AF006FCD8F80400A0F850A1584623F0BF
:10171000FEFA0090D8F804000068436A1BB1D8F8BC
:101720000020009998471AF0B7F900F035F805B095
:10173000BDE8F04F00F002B8C000002070B50A4EBE
:101740000024C4EBC40556F82500002818BF1AF081
:1017500047FA06EB85001C211AF0DAFB601CC4B2C4
:10176000042CEED370BD0000B00F00200949496879
:10177000002908BF70474A6882421CBF0A6882423B
:1017800003D10A7E42F001020A7649690029F2D1AA
:1017900070470000940000207047000004210148B9
:1017A00001F0D6B8C80E00201C21014801F0D0B8C5
:1017B000E00E00202DE9F05F0446DDE90A08002B69
:1017C00008BFB0F5807F00F0C580B8F900C04FF0C9
:1017D000FF35CCF1000C0CFB00FC05EB2C2C0FFAB8
:1017E0008CFCA4F800C0B8F90260002BC6F100061A
:1017F00006FB00F605EB26252DB26580B8F90060E2
:10180000A1EB060101FB00F14FF0020606EB2121DE
:1018100009B2A180B8F90270A2EB070202FB00F046
:1018200006EB202000B2E0807ED046F2676013FB1A
:1018300000F08114A1EBE075684200EB800003EB3F
:1018400040066F1C284623F019FD8246384623F0D7
:1018500015FD814605F15A0023F010FD054607F1FC
:101860005A0000B223F00AFD0246C6F10A0000FB4E
:101870000AF15E4B09FB0611684302FB060083FB7D
:1018800001C183FB00204FEAA10C8210ACEBE17197
:10189000A2EBE07047114E11B8F800A0B4F90000B7
:1018A000B4F9021007FB00FC06FB11C2B8F8029065
:1018B000B4F904800AEBA22215B207FB08FB06FB71
:1018C00000F207FB012006FB08FEB4F9068009EBD5
:1018D000A02003B206FB11B006FB18CC07FB01E108
:1018E00007FB082206FB18B607FB08E70AEBAC2C3F
:1018F0000AEBA02009EBA1210FFA8CFC09EBA22234
:101900000AEBA62609EBA72700B209B212B236B23B
:101910003FB2AC45ACBFA846E0468642B4BFB14634
:101920008146C8452FDA00E01BE0AC45ACBFA846B5
:10193000E046A4F80080AC45CCBFE046A84686420D
:10194000CCBFB1468146C84522DDAC45D4BF284650
:10195000604620E0002020806080481EA080501E4D
:101960000EE0B8F8002062442280B8F802202A4431
:101970006280B8F800201144A180B8F80210084431
:10198000E080BDE8F09F8642B4BFB0468046D0E715
:10199000B042B8BF3046A0809A42B4BF1046184645
:1019A0008F42B4BFBC468C46604513DA9A42ACBF46
:1019B0001846104660809A42CCBF104618468F42A7
:1019C000CCBFBC468C46604509DD9A42D4BF19465F
:1019D000114607E08F42B4BF38460846EAE7B942ED
:1019E000B8BF3946E180BDE8F09F000067666666D3
:1019F0002DE9F04F04460368B0F90800E589081A9C
:101A0000B4F90A1083B0511AD4E909C2B5F5807F40
:101A10004CD0A589002DA56B05FB00F005FB01F15D
:101A20004FEA60104FEA611104BF0CEB000A02EBB1
:101A300001090CD0256BE66A05FB00F7704306FB35
:101A4000117705FB01000CEBA72A02EBA029B4F9E2
:101A500004004FEA2A264FEA2925B0424FDD002E26
:101A6000A4BFB4F90610A94249DD002D47DB94F864
:101A7000341011F0040F46D011F0020F24D000FBF7
:101A8000056000EB4007D9194FF0030804F114007A
:101A9000022211F801CB00F801CB521EF9D107EB5D
:101AA0000800184410F8010CA0751CE0256BE66ACC
:101AB00005FB00F7704306FB117705FB01000CEBFB
:101AC000A70A02EBA009C2E700FB056047004FF040
:101AD000020804F11400DA19414612F8013B00F83B
:101AE000013B491EF9D194F8340010F0010F20D0C9
:101AF0004FF4FC60ADF80000A18A814219D103B017
:101B00000020BDE8F08F00272AB2236931B2B84621
:101B10008B4604F11800019216F038FF0090BDF8D2
:101B20000000A082594604F11800019A16F0A4FEA4
:101B3000BAE7E07C002802BF012003B0BDE8F08FC7
:101B4000A4F83CA0A4F83E90A4F84060A4F8425049
:101B5000676484F8488003B02046BDE8F04F00F089
:101B600001B800002DE9F04F044690F83C100268DF
:101B700090F83E0087B040F27F13702975DAB4F90F
:101B800040C04FF0FF35BCF1010F48BF0025803148
:101B900001F0FF0870287ADAB4F942104FF0FF36EE
:101BA000012948BF00268030C7B260690490A07D3B
:101BB00000904FF0000B94F83400DA46D94610F04C
:101BC000040F75D094F84830606C05A913FB05002C
:101BD0001044022310F801CB01F801CB5B1EF9D1B0
:101BE000A08894F8483002A910FB03F0636C06FB50
:101BF00000301044022310F801CB01F801CB5B1E2A
:101C0000F9D1A38894F8480003A913FB00F3D4F892
:101C100044C006FB03C310FB05201844022310F840
:101C200001CB01F801CB5B1EF9D194F8340010F020
:101C3000020F7CD094F84800636C10FB053C8118BF
:101C40008C441CF801BCB4F804C01CFB00FC06FB6F
:101C50000C33194411F801AC10FB05001844104472
:101C600010F8019C74E000E011E09029DCBF002531
:101C70004FF0FF088EDDB4F940C0B4F904600125CF
:101C80000CF1010CB445A8BF0025591A80E7902833
:101C9000DCBF0026FF2788DDB4F94210B4F906C086
:101CA0000126491C6145A8BF0026181A7CE7FFE7FA
:101CB000B4F84000B4F94220284401B204F11800FD
:101CC000236916F063FE0590B4F84200B4F94010A1
:101CD000304402B204F11800236916F057FE029056
:101CE000B4F842002369304402B2B4F840002844FA
:101CF00001B204F1180016F049FE039094F8340084
:101D000010F0020F24D0B4F84000B4F94220284467
:101D100001B204F1180016F0AFFD8346B4F842009A
:101D2000B4F94010304402B204F1180000E00FE0B2
:101D300016F0A2FD8246B4F84200304402B2B4F874
:101D40004000284401B204F1180016F095FD8146C8
:101D500094F83410404611F0020F04BFFF21A17522
:101D600035D0009911FB08F2C8F1FF011BFB0122DD
:101D7000C2F307221AFB08F319FB0131C1F3072153
:101D800012FB07F3C7F1FF0C11FB0C331B0AA37501
:101D9000022A07D802298CBF0027002005D807B0E7
:101DA000BDE8F08F022998BFFF270099022998BF4C
:101DB0000020BBF1020F98BFFF20BAF1020F98BFBD
:101DC0004FF00008B9F1020F98BF4FF0FF08374AF3
:101DD000002804BF059800901BD0FF2808BF049876
:101DE00016D0DDE9041C001DC3081FFA8CF089B26F
:101DF00040EA004041EA014110401140091A5943AC
:101E000000EB5110104040EA1040ADF8000080B2E5
:101E10000090B8F1000F04BF039801901CD0B8F1F6
:101E2000FF0F08BF029816D0DDE9021080B289B218
:101E300040EA004041EA014108F10403104011402A
:101E4000DB08091A594300EB5110104040EA1040DA
:101E5000ADF8040080B20190002F08BFBDF8040067
:101E600021D0FF2F08BFBDF800001CD0009980B220
:101E700089B23B1D40EA004041EA01411040114057
:101E8000DB08091A594300EB5110104040EA10409A
:101E9000ADF8000080B20090BDF80000A08207B04D
:101EA0000120BDE8F08FA082F9E700001FF8E007ED
:101EB0002DE9F0470446B0F9080046F267610002D8
:101EC0006062B4F90A000002A062B4F90C0010FBD1
:101ED00001F18A14A2EBE175694201EB810100EB8B
:101EE00041066F1C684223F0C9F98146784200B26E
:101EF00023F0C4F98046C5F15A0023F0BFF9054626
:101F0000C7F15A0000B223F0B9F90246C6F10A003F
:101F100000FB09F1284B684308FB061102FB060091
:101F200083FB01C183FB00204FEAA10C8210ACEBC4
:101F3000E171A2EBE07049114011C4E90B10A07CE3
:101F400016F0F0FD94F8341060F3000184F83410BA
:101F5000A07C16F0D6FD94F8341060F3410184F8AB
:101F60003410A07C042818BF052822D0062818BFEA
:101F700021F004011DD084F8341021682162A16988
:101F800021F0E00160F30401A08860F39421E0886F
:101F900060F35F51A161E0894FF4001101EB500142
:101FA000B1FBF0F0A063FF20A075208AA082BDE8FD
:101FB000F08741F00401DEE7676666662DE9F041CF
:101FC00016460F468046124C22F0A7FE05463346C1
:101FD0003A464146204617F095F920B10020A0620C
:101FE000E06950B111E02C21204619F091FF4FF02B
:101FF0000040A0620020BDE8F081284622F087FE64
:10200000E061002804BF0120E0612046BDE8F081C6
:10201000040F002010B514210A4800F099FC09486B
:1020200000F09EFC04000BD0142119F071FF06484B
:102030002060064860600648A0600648E06010BD69
:10204000FEE70000EC0E0020E18B0108998C0108EE
:10205000BD8E0108A98B010870B50D4604461021FC
:10206000284619F055FF20680078012808D002287A
:1020700008BFE06809D0042808BF0A2005D005E0A1
:10208000208A2880608A688000E068602068426852
:10209000002A08BF70BD2946BDE870401047000007
:1020A0002DE9F04F866A87B00446002E40F03C814F
:1020B000A08A218A0844A082E08A618A0844E082DA
:1020C00000200190039017F023FD00680025AA4628
:1020D00090F818B0206A0090B4F914100029D8BF05
:1020E0004942B4F916000028D8BF40428142CCBF13
:1020F00001254FF0010A009800281CBFCBF1000019
:10210000029000F0C980102100981CF087FE002882
:102110007ED0D146A8464E46474600981BF0FCFFAD
:1021200010F0010F08BF4FF0000810F0020F08BFB9
:10213000002710F0040F08BF4FF0000910F0080F3F
:1021400008BF002600981CF005F9069000981BF0C7
:1021500085FF059000981CF00DF8049000981CF085
:102160007DF806990029DCBF0599002910DDB9F139
:10217000000F03D0B4F91610594505DA46B1B4F989
:10218000162002998A4203DC009901910C210391E7
:1021900004990029D8BF002810DDB8F1000F03D042
:1021A000B4F91410594505DA47B1B4F9142002996D
:1021B0008A4203DC009901910321039106990029C9
:1021C000D8BF4FF0000905990029D8BF002604990F
:1021D0000029D8BF4FF000080028D8BF0027B8F169
:1021E000000F03D0B4F91400584514DA27B1B4F93C
:1021F0001410029881420EDDB9F1000F03D0B4F93A
:102200001600584507DA16B3B4F91610029800E024
:102210000CE081421BDC002D14BF03200C2094F83D
:102220003C1060F3030184F83C1027E04FF4807108
:1022300000981CF0F3FD35EA00001FD14FF4007147
:1022400000981CF0EBFD3AEA000017D10FE04FF4C4
:10225000807100981CF0E2FD35EA00000ED14FF4C9
:10226000007100981CF0DAFD3AEA000006D10098EF
:102270001BF0E8FE009000287FF445AF019858B1AC
:1022800094F83C10039860F3030184F83C10019823
:10229000A0620020A082E082019E002E04BF07B051
:1022A000BDE8F08F8021A56A28461CF0B7FDA64F37
:1022B00041F6FF78002864D028461CF044F8012835
:1022C0006AD002287CD003281CBF6786A4F8368019
:1022D00077D028461CF030F8012873D0022872D03D
:1022E00003281CBF2786A4F834806DD0208E0028D8
:1022F00008BF2786A08E002808BFA4F83480608E0F
:10230000002808BF6786E08E002808BFA4F8368042
:1023100000220921304615F055FC607810F0020FBC
:102320001CBF07B0BDE8F08F208A002801BF608A7B
:10233000002807B0BDE8F08F4FF00005ADF8085059
:10234000ADF8045094F83C0000F00F00032830462C
:102350007CD01BF0FFFF074630461BF07FFE0C21B0
:1023600000910346B4F912103A46304609F0DAFDFE
:10237000ADF8040030461BF0CFFE10F0010F78D10D
:10238000A7E041F6FF7339463A4604F13000CDF834
:1023900000800FF09CF8A9E7E88A0023401C01B2F6
:1023A00041F6FF7228460AF03DFC6086E88A002369
:1023B000401E02B2394628460AF034FCE08688E71F
:1023C00003E014E030E042E054E0B5F91A100023D5
:1023D00041F6FF7228460AF025FC6086B5F91A20FE
:1023E0000023394628460AF01DFCE08671E7688B19
:1023F000E98A0023401A401C00B200EBD07001EBC8
:10240000600909F1010001B241F6FF7228460AF0A5
:1024100009FC6086A9F1010002B200233946284672
:102420000AF000FCE08654E7B5F91410002341F6E9
:10243000FF7228460AF06AFB2086B5F914200023B3
:10244000394628460AF062FBA0864FE72FE0B5F92F
:102450001810002341F6FF7228460AF057FB208629
:10246000B5F918200023394628460AF04FFBA0860C
:102470003CE734E0288BA98A0023401A401C00B2B4
:1024800000EBD07001EB600909F1010001B241F6E7
:10249000FF7228460AF03AFB2086A9F1010002B239
:1024A0000023394628460AF031FBA0861EE71BF0C0
:1024B000D5FE074630461BF05DFE03210091024623
:1024C000B4F910103B46304609F02CFDADF8080079
:1024D00050E7BDF908100029C8BFADF8085010F04A
:1024E000020F05D1BDF908100029B8BFADF808509A
:1024F00010F0040F05D1BDF904100029C8BFADF8D4
:10250000045010F0080F05D1BDF904000028B8BF31
:10251000ADF8045001AA02A9204625F059FC002379
:10252000BDF90420BDF9081030461DF05DFFA08AFA
:10253000BDF808100844A082E08ABDF804100844E1
:10254000E08207B0BDE8F08F01E0FFFF2DE9F04F1A
:10255000D0F828A083B00446BAF1000F19BF94F850
:102560003C0010F00F0F03B0BDE8F08F17F0D0FA69
:10257000019000684021457E50461CF04FFC00262B
:10258000002804BF6683268350461BF0D5FE814693
:1025900050461BF0D8FE804694F83C008E4F00F069
:1025A0000F000C2802D003285CD093E02683B8F1FA
:1025B000000F34D0B4F91A504FF0000B17F0A8FAFE
:1025C0000068002D407E18BFC0F164010DD00BEBF8
:1025D00005000FFA80FB11FB05F087FB002042117C
:1025E000A2EBE07005B2002DF1D1ADF800B066832A
:1025F0006A460021204625F0EBFB41F6FF72BDF94B
:102600000030514250460AF00DFBBDF80010012386
:10261000084402B2002150461DF0E6FE5AE0608BED
:10262000C5F1640110FB01F087FB00104111A1EB23
:10263000E070608350461BF011FD054650461BF0CC
:1026400089FE0C2100910246B4F91A102B4650461F
:1026500009F068FC608300230246194650461DF0CD
:10266000C3FE37E06683B9F1000F3FD0B4F91850CC
:102670004FF0000B17F04CFA0068002D407E18BF99
:10268000C0F164010DD00BEB05000FFA80FB11FBCC
:1026900005F087FB00204211A2EBE07005B2002D8F
:1026A000F1D1ADF800B0268300226946204625F01E
:1026B0008FFB41F6FF72BDF90030514250460AF0DF
:1026C00025FABDF800100123084401B2002250464B
:1026D0001DF08AFE208B002807BF608B002803B006
:1026E000BDE8F08FB8F1000F40D122E0208BC5F19A
:1026F000640110FB01F087FB00104111A1EBE070B9
:10270000208350461BF036FD054650461BF0A6FDC3
:10271000032100910346B4F918102A46504609F0E7
:1027200001FC2083002301461A4650461DF05CFE42
:10273000D0E750461BF00EFE054650461BF08EFCBF
:10274000002D0ADC002811DD002D06DA01232A46BF
:10275000002150461DF048FE08E0002806DA4042FD
:1027600002B20123002150461DF03EFEB9F1000FD8
:102770001CD150461BF0FEFC054650461BF06EFD7A
:10278000002D0ADC002811DD002D06DA01230022CD
:10279000294650461DF028FE08E0002806DA40428F
:1027A00001B20123002250461DF01EFE0A215046B0
:1027B000019A15F007FA607810F0020F1CBF03B001
:1027C000BDE8F08F94F83C0020F00F0084F83C0046
:1027D000A66203B0BDE8F08F1F85EB5170B584B0E1
:1027E0000D46040005D111F0FDFB040004BF04B048
:1027F00070BD0026002D02BFA0F8506104B070BD6E
:10280000ADF80060ADF8026011F004FC401EADF8B8
:102810000400204611F048FC401EADF806006A4650
:10282000294602A8FEF7D8FC002804BF04B070BDFA
:102830002068017C11F0020F0CD0DDE90001C4E931
:102840000C010120A4F850016068002804BF04B006
:1028500070BD45E08269002A1CBF02A9904700258F
:10286000B4F85001002811D904EBC50000F1300183
:10287000002202A8FEF7DCFC00281CBF04B070BDDB
:10288000681C85B2B4F85001A842EDD880B2202867
:102890000ED204EBC000BDF808100186BDF80A1086
:1028A0004186BDF80C108186BDF80E10C1860DE082
:1028B000A4F85061BDF800102186BDF802106186B1
:1028C000BDF80410A186BDF80610E186B4F85001E9
:1028D000401CA4F850016068002804BF04B070BD1B
:1028E00022F04EFB04B070BD70B506000CBF002492
:1028F0007468002C08BF70BD211D30684558214602
:10290000304600F078F8204619F06AF92C00F3D12F
:1029100070BD002818BF4068704702004FF00000EB
:102920000CBF00215168002914BF12687047091DAF
:10293000401C51580029FAD170470068091D4058C1
:102940007047006840587047002818BF806870477B
:1029500000224260C91C21F00301826001607047BF
:1029600038B504460068083019F080F8002808BF20
:1029700038BD002100912268031D1150616800914B
:102980002268D1506168002918BF009001D02268E8
:1029900050506060A168002908BFA06038BD38B5FC
:1029A00004460068083019F061F8002808BF38BDF7
:1029B000002100912268031DD150A1680091226876
:1029C0001150A168002918BF009003D0226801F1BE
:1029D00004015050A0606168002908BF606038BDE4
:1029E00030B14168002907BF806800280020704787
:1029F0004FF00100704781B0002804BF01B070475C
:102A00000022D0F804C00B1D8C450CD10168C958B8
:102A10004160002911BF0092826001B070470068D8
:102A2000425001B07047D0F808C08C450ED1036801
:102A300059588160002911BF0092426001B070476F
:102A4000006801F10401425001B07047D0F800C0A5
:102A50005CF801205CF8031000912AB1D0F800C0A6
:102A600002F104034CF8031000920029D7D101B001
:102A7000704710B5044600688268002A1CBF2146D2
:102A8000904720680068002818BF2060F4D110BD6E
:102A90008068002818BFB0F9160070472DE9F0478C
:102AA000054690B0408C189C40F004006884904625
:102AB0002A841E468946228928461CF05BF88246F5
:102AC0002E842289494628461CF054F80746688C13
:102AD000BA4520F00400688407D14FEA0A41B1EBFF
:102AE000074F04BF10B0BDE8F087A5F82080228909
:102AF000494628461CF03EF880462E844946284622
:102B00000BF0BCF821890068424620F08AFC20893D
:102B1000602821D147F6FF7AD04518BF57451BD111
:102B200028461CF00FF900EBD070461028461CF028
:102B300009F900EBD0704010D04505D1711C421C42
:102B40009142B4BF88469046574505D1711C421C3E
:102B50009142B4BF0F4617461848FFF701FF060021
:102B60002BD03560C6E903872089B0806846C6F857
:102B700008900DF0D1FE1248FF21CDE90060114808
:102B800002901148039000200790CDE908012088A9
:102B90000A9060889DF83E1040420B90E0680690D5
:102BA000002060F300018DF83E1020690590684612
:102BB0000DF028FF10B0BDE8F087FEE7F80E00200A
:102BC000A5DA0208D5DC020811DC0208142101484C
:102BD000FFF7BEBEF80E00202DE9F84F0646408CE8
:102BE0000024C0F3C500174688462546002888BF44
:102BF0004FF0040940F20E81F06809EBC50140581E
:102C000010F0007F40F0FF8080B230EA080114BF6E
:102C100000230123B8430CBF01200020834200F0B1
:102C2000F280F0686A4641F6100150F835A050462F
:102C300020F0CCF900287CD16A4641F611015046BB
:102C400020F0C4F9002878D16A4641F612015046B6
:102C500020F0BCF9002870D16A4641F613015046B5
:102C600020F0B4F9002868D16A4641F615015046B3
:102C700020F0ACF9002860D16A4641F614015046B4
:102C800020F0A4F9002858D16A4641F26901504663
:102C900020F09CF9002850D16A4643F20C015046BE
:102CA00020F094F9002848D16A4643F20D015046BD
:102CB00020F08CF9002840D16A4641F201015046CB
:102CC00020F084F9A8BB6A4641F20401504620F086
:102CD0007DF970BB6A4641F20201504620F076F958
:102CE00038BB6A4641F20301504620F06FF900BB41
:102CF0006A4641F20501504620F068F9C8B96A46B3
:102D000041F20601504620F061F990B96A4641F25D
:102D10003201504620F05AF958B96A4643F60F017D
:102D2000504620F053F920B96A4643F60E0150464A
:102D300000E002E020F04AF910B10320BDE8F88F6E
:102D40006A4640F60A01504620F040F9002855D165
:102D50006A4640F60B01504620F038F9F0BB6A464F
:102D600043F60F01504620F031F9B8BB6A4643F6EE
:102D70000E01504620F02AF980BB6A4640F63C011D
:102D8000504620F023F948BB6A4640F63D015046C4
:102D900020F01CF910BB6A4640F63A01504620F07C
:102DA00015F9D8B96A464FF40461504620F00EF97F
:102DB000A0B96A4640F64501504620F007F968B9C7
:102DC0006A4640F64101504620F000F930B96A46A3
:102DD00040F64201504620F0F9F800E00EE068B9F4
:102DE0006A4640F64301504620F0F0F830B96A4692
:102DF00040F64901504620F0E9F808B1022402E00B
:102E0000002C08BF0124708C6D1CC0F3C500A842C3
:102E10003FF6F2AE2046BDE8F88F0000014840685A
:102E200070470000C00000207047C0F3041007285E
:102E300088BF07207047000010B518210348FFF72E
:102E400087FD03490120087010BD0000A40E00207A
:102E500014020020002808BF70472DE9F0411746F2
:102E60000D460446FDF778FCDFF838800646294613
:102E7000D8F80820204690470546D8F80820601961
:102E80003946904701462846721A824238BFBDE84B
:102E9000F0814318E35C2354401C8242F9D2BDE820
:102EA000F0810000280200202DE9F041084E15466F
:102EB0000C4672681F46804619469047206020B134
:102EC000386872684044002190472860BDE8F0816E
:102ED000280200202DE9FF4F8DB083461A98002666
:102EE000002818BF0680BBF1000F02BF002011B000
:102EF000BDE8F08F9BF80000002819BF0E9800284D
:102F000011B0BDE8F08F4FF0000005901B9810F055
:102F1000060F18BF002014D01BF800100A2918BF94
:102F20000D2904D0002918BF401CF5D100E0401C39
:102F30001A9900291CBF4FF0FF320A8011B0BDE87A
:102F4000F08F1B9810F0020F1CBF41F6FF7010901D
:102F5000049604981BF8000000281CBF1098002855
:102F600040F3E3800498002106910BEB00020192EC
:102F70000E9A0A920F9A0992109A08921B9A0DF1D2
:102F80001809079200280CBF012000200B9001981F
:102F900000281FBF007800280A98002808BF0F46A5
:102FA0007BD012F0020F1CBF41F6FF7008904FF06B
:102FB0000007704A02970397009752683C46BA464A
:102FC0004FF0FF3802A901989047054602980390F8
:102FD00001980078002877D0664A03A901985268C2
:102FE0009047009007980AF1010A10F0010F14D0E1
:102FF0000020232D04D0F1B201291FD068B15BE07D
:1030000016F0FF0008BF012656D0012808BF002691
:1030100003D0022808BF00264ED02946009A0A98FD
:1030200014F008FF00B221180CB2002802DD099844
:10303000204404B2B8F1FF3F0AD103E0202D08BFBD
:10304000022639E00998211A08988142C8BFB8467B
:103050000A2D18BF0D2D18D0A5F59C4145F2A510DD
:103060004FF00002814210D943A10020097859B1E4
:1030700041A10B5CAB4201D1012205E0401CC0B272
:103080003DA1095C0029F3D172B1002F08BFB8F14E
:10309000FF3F06D1B9F1000F00E027E018BFC9F8E3
:1030A0000040AAF1010A0FE0B9F1000F04D0B8F115
:1030B000FF3F08BFC9F80040DDE9027002900198A7
:1030C000009DC05D002887D1B8F1FF3F05D00B9867
:1030D000002818BF474635D008E0BAF1000F04D0E9
:1030E0000D2D04BF00980A2800D1029F1099069860
:1030F000A1EB000109B210910599084400B20590B6
:103100009FB1049800EB070104919BF800000A2886
:1031100018BF0D2809D01BF801000A2818BF0D2878
:103120007FF417AF01F101000490049890B11A9850
:10313000002818BF059801D01A990880049811B08A
:10314000BDE8F08FB9F1000F1CBF0020C9F80000E6
:103150000027CBE7074A04A95846526890471A9AB5
:10316000002AEBD0014600220E9814F063FE00B254
:103170000590E1E728020020202C2E3B3A2D5F002D
:10318000002814BF002A70472DE9F04116468846F2
:103190000746FDF7E1FA04463046FDF7DDFA050083
:1031A00008BFBDE8F0812C440D4A4146384692687C
:1031B000904701462844A04205D8621BBA5C3A55A4
:1031C000641EA042F9D97818002D08BFBDE8F0812F
:1031D00016F8011B00F8011B6D1EF9D1BDE8F08146
:1031E0002802002000230278232902D0012A0ED0D1
:1031F00013E0002A08BF01210DD00021012A08BFD9
:1032000001700AD0022A04BF0170012305E02029C1
:1032100008BF022100D101700123184670472DE933
:10322000F0410B460F46064602460021084622F0B2
:1032300061FA04464FF00008401C18F017FC050026
:1032400009D005F804803B463246611C22F052FA50
:103250002846BDE8F081FEE72DE9F05F1F46DDF866
:10326000288014000D46824618BF4FF0010911D086
:10327000660806FB075B59465046C0470028B8BFA2
:1032800034460BDD29EA0400C0EB54040BEB0705C0
:10329000002CEDD14FF00000BDE8F09FF8DB584660
:1032A000BDE8F09F2DE9F04F83B04FF0300ADDE923
:1032B0000C64DDE91058DDE90EBC129F17F0020F17
:1032C0001ED1B8F1000F18BF17F0010F06D007F09C
:1032D0000C0959EA0B0918BFA8F10108AC423EBF1E
:1032E000202C06F804A0641CF8D317F0010F18BFB7
:1032F000A04505D9202C3CBF06F804A0641CF4D3DB
:1033000017F0100F36D017F4806F0CD15CB1AC42BF
:1033100018BF444507D1641E05D0BCF1100F08BF8B
:10332000641E07D002E0BCF1100F03D0BCF1020F05
:1033300013D019E017F0200F07D0202C36D24FF011
:10334000580C06F804C0641C0EE0202C2ED24FF05E
:10335000780C06F804C0641C06E0202C26D24FF03E
:10336000620C06F804C0641C202C3CBF06F804A0C4
:10337000641C1BD2202C19D2BBF1000F05D04FF0DA
:103380002D0C06F804C0641C10E017F0040F05D0E3
:103390004FF02B0C06F804C0641C07E017F0080F70
:1033A00004D04FF0200C06F804C0641CCDE90031B5
:1033B00015468146AA4617F0030F0CD1A346444593
:1033C00009D22A46DDE900316D1C2020C8470BF1E7
:1033D000010BC345F5D344B12A466D1C641EDDE9DB
:1033E0000031305DC847002CF6D117F0020F1CBF2A
:1033F000A5EB0A00804509D92A46DDE900316D1C9C
:103400002020C847A5EB0A008045F5D803B0284620
:10341000BDE8F08F2DE9F04F91B00024DDE91ACA24
:10342000DDE91E85DDE91C69BCF1000F08BF25F050
:10343000100515F4806F0DF1200B02D0BCF1000FC8
:103440001BD0BCFBF6F706FB17C7FFB20A2F38BF2D
:10345000303708D315F0200F14BF4FF0410E4FF056
:10346000610E77440A3FBCFBF6FC0BF80470641C49
:10347000BCF1000F18BF202CE3D3CDF800B0CDE98C
:10348000014ACDE90585CDE90369FFF70BFF11B0CE
:10349000BDE8F08F9A4238BF885470477047704734
:1034A0002DE9FF4F99B080461A98269E1C464FF092
:1034B000000A002808BFDFF870852078002871D046
:1034C000C0B2252808BF00256DD134E00ADC2028D1
:1034D00008BF45F008052ED0232808BF45F0100589
:1034E00029D009E02D2808BF45F0020523D0302857
:1034F00008BF45F001051ED0C0B20027A0F1300181
:1035000009299CBF00276FF02F0102D92A281AD061
:103510000BE0204607EB8702007801EB4202871898
:1035200014F8010F30380928F3D920784FF000093A
:103530002E2811D02DE014F8010F2B2808BF45F0DC
:103540000405F8D0C2E756F8047B002FBCBF45F055
:1035500002057F42641CE8E714F8010F45F480651A
:10356000A0F1300109299CBF4FF000096FF02F0135
:1035700002D92A2818D00CE0204609EB89020078ED
:1035800001EB420200EB020914F8010F3038092860
:10359000F2D920786C281BD00FDC682830D06A283C
:1035A0001CD01EE046E03AE056F8049BB9F1000F4B
:1035B000D8BF4FF00009641CEBE7742808BF45F43E
:1035C00080750DD07A2804BF45F48075641C08E02E
:1035D00014F8010F45F480756C2802D145F400758C
:1035E000641C207869283FD031DC62283CD011DC93
:1035F000252800F00F82502818BF582834D00EE03C
:1036000014F8010F45F08005682808BF45F0400513
:10361000E7D1E5E7632800F07A81642824D0DDE96A
:103620001A1352460AF1010AC047641C2078002888
:103630007FF446AF1B98824534BF5246421E034674
:1036400000201A99C0471DB05046BDE8F08F73287E
:1036500000F08D8104DC6F2818BF7028DFD103E0F3
:10366000752818BF7828DAD1782814BF58284FF069
:10367000100B1BD0702818BF50280ED06F2808BF21
:103680004FF0080B1FD062280EBF4FF0020B4FF017
:103690000A0B25F0100516D010E060784FF0100BE3
:1036A00045F48875562808BF641C02D12078582834
:1036B00002D02078502801D145F02005C0B26928F9
:1036C00018BF642801D025F00C0515F4806F18BFD1
:1036D00025F001052078692818BF64284CD05628A9
:1036E0007ED015F4007F7CD01A98CDE908A01B98F5
:1036F0000790F01D20F0070202F10806D2E9000150
:10370000002200929246019250EA010208BF25F081
:10371000100515F4806F02D050EA01021CD05A4601
:10372000019BFCF70AFE0346D0B20A2838BF3030AE
:1037300006D315F0200F14BF4122612210440A382D
:1037400010AA02F80A0018460AF1010A53EA010217
:1037500002D0BAF1200FE2D3CDE90575CDE903B966
:1037600010A900980091CDE901A0DDE908214046AB
:10377000079BFFF797FDBEE015F4007F58D0F01DC2
:1037800020F0070101F10806D1E900021A99CDE9FC
:1037900010A11B99079100210B46091A73EB020136
:1037A000B8BF114603DB0021404261EB0201002A51
:1037B000B4BF01220022009200229246019250EAF8
:1037C000010208BF25F0100515F4806F02D050EA01
:1037D00001021FD05A46019BFCF7AFFD034601E0F2
:1037E00053E063E0D0B20A2838BF303006D315F07A
:1037F000200F14BF4122612210440A3808AA02F89F
:103800000A0018460AF1010A53EA010202D0BAF18D
:10381000200FDFD3CDE90575CDE903B908A90098DC
:103820000091CDE901A0DDE910214046079BA0E70A
:1038300015F4807F12D056F8040BCDE90475CDE95C
:1038400002B9C10F002815DDCDE90001DDE91A1329
:1038500052464046FFF7DEFD82464DE015F0400F30
:103860000AD016F8040BCDE90475CDE902B9C10FF1
:103870000028E9DC4042E7E715F0800F1ABF36F870
:10388000040B00B256F8040BEDE756F8040B416840
:103890000968009103681B98A0EB0A021A9800EBD4
:1038A0000A014046FFF7FCFD824425E015F4807FC5
:1038B0000FD0CDE90475CDE902B9002156F8040B0B
:1038C000CDE90001DDE91A1352464046FFF7A2FD9B
:1038D00011E015F0400F11D016F8040B0021CDE9CE
:1038E0000001CDE902B9CDE90475DDE91A135246AC
:1038F0004046FFF78FFD8246641C97E615F0800F67
:103900001ABF36F8040B80B256F8040BE6E74FF006
:10391000010915F0020F0FD14FF00209012F0BD949
:10392000DDE91A1352460AF1010A2020C047484631
:1039300009F101098742F3D8DDE91A13524616F856
:10394000040B0AF1010AC04715F0020F1CBF09F170
:1039500001054F45D0D9DDE91A1352460AF1010A93
:103960002020C04728466D1C8742F4D8C4E756F88B
:10397000042B0092B9F1000F14BF49464FF0FF31FC
:10398000104603781BB1491E40F10000F9D2A0EBAC
:10399000020B15F4806F02D0D94598BFCB4615F0C5
:1039A000020F1AD158460BF1010BB84215D2DDE9CE
:1039B0001A1352460AF1010A2020C04758460BF15B
:1039C000010BB842F3D308E000995246491C00911C
:1039D000DDE91A130AF1010AC0470098007828B1FE
:1039E00015F4806FF0D0B9F10109EDD215F0020F96
:1039F0001CBF0BF101055F457FF67EAFDDE91A13B1
:103A000052460AF1010A2020C04728466D1C874211
:103A1000F4D871E7DDE91A1352460AF1010A2520AC
:103A2000C047641C02E600009D3400080B78426821
:103A300063F3082242604B78826863F3410282603C
:103A40008B78826863F3CB228260C9784A1EC16A90
:103A500062F31751C162704700210170417081709B
:103A60000121C1707047816841F008018160704791
:103A7000806810F0080018BF01207047816841F08D
:103A8000040181607047806810F0040018BF0120B5
:103A9000704700001F490378D1F8042363F3040240
:103AA000C1F804234378D1F8042363F31342C1F827
:103AB0000423827812F0040FD1F8042314BF42F0DB
:103AC000805222F08052C1F804238278D1F8043366
:103AD00062F38F33C1F80433C378D1F8042363F35E
:103AE0004D32C1F804230379D1F8042363F30B2288
:103AF000C1F804234379D1F8042363F3D752C1F802
:103B000004238279D1F8040362F39650C1F80403C8
:103B10007047000000200140002101704170817059
:103B2000C1700171417181717047000030B587B07B
:103B300001214FF4401001F079FF04A80AF07AFC4B
:103B400003208DF81600012504A9374804950AF0D2
:103B50007BFC0121354801F069FF0022114612204B
:103B600022F0D4FC6846FFF7D7FF00248DF8004010
:103B700002208DF801008DF804408DF802408DF888
:103B800005408DF803408DF806406846FFF782FF38
:103B900002A8FFF761FF8DF808508DF809408DF8F5
:103BA0000A40234C8DF80B5002A92046FFF73EFF38
:103BB0000021204600F0CFF80723012200212046F3
:103BC00000F060F800221146204600F0A6F800211F
:103BD000204600F02FF80021204600F030F80121A7
:103BE000204600F04AF801229106204600F038F8FD
:103BF0000121204600F028F84021204600F029F855
:103C00000028F9D02046FFF72EFF2046FFF730FFAF
:103C10000028FAD12046FFF731FF2046FFF733FF97
:103C20000028FAD107B030BD00000240080044006F
:103C300000200140826861F3082282607047826838
:103C400061F3492282607047826861F300028260FA
:103C500070470246002012680A4218BF01207047D0
:103C6000012A04BF4268114305D0002A06BF4268FA
:103C700022EA0101704741607047826861F38A223D
:103C80008260704730B407250A290AD2046901EB23
:103C9000410C05FA0CF5AC4303FA0CF32343036122
:103CA0000BE0C468A1F10A0C0CEB4C0C05FA0CF506
:103CB000AC4303FA0CF32343C3604FF01F0C0D2AEF
:103CC0000CD3C36A0D3A02EB82020CFA02FC23EA1F
:103CD0000C0391401943C16230BC7047072A0CD3D2
:103CE000036BD21F02EB82020CFA02FC23EA0C03E4
:103CF00091401943016330BC7047436B521E02EB85
:103D000082020CFA02FC23EA0C039140194341633E
:103D100030BC7047C06C80B2704701F00F030F29B0
:103D2000816807D941F000418160816863F31B61BC
:103D3000816006E021F000418160816863F31B61CE
:103D40008160816862F31D7181607047826861F3F0
:103D50009E7282607047426861F3196242607047E8
:103D600010B5084C01212046FFF7F0FF0221204644
:103D7000FFF76FFF0028F9D02046BDE81040FFF79D
:103D8000C9BF00000020014010B5084C0120207080
:103D90000748FEF7BEFD0028A06803D0BDE810402C
:103DA00021F0EEB8BDE8104021F0DEB8E8010020B7
:103DB000D40E00202DE9F047584E706820F0A7FF80
:103DC0000546707880F0010070705548FEF7A1FD3F
:103DD000040070D000274FF6FF784FF001093770CC
:103DE00094F83E007178C0F380028A427ED061F37D
:103DF000820084F83E00E16A4A1910F0080F1BD1D6
:103E0000002919DC002A17DB10F0010F09D1216904
:103E100039B120468847E1690144E161616A08449B
:103E20006062A16800291CBF2046884794F83E00C4
:103E300040F0080084F83E00E06A4019E0625AD47D
:103E4000A16A8842C8BFE1622046A169884701464D
:103E5000206A884205D021626268002A1CBF20685F
:103E60009047D4E90A01814245DB94F83E0010F006
:103E7000020F02D0A08F40B11EE0A08F28B14045B4
:103E80001CBF401EA08717D0F4E7606B20B194F8E8
:103E90003E0010F0020F0FD021462148FEF7ABFD87
:103EA000FFF772FFE1682046002918BF88472046C7
:103EB00017F096FE1FE02BE0A06B4142E162606BC1
:103EC000C8B194F83E0010F0020F02D1206B4142BD
:103ED000E16294F83E0029EA500161F3410084F860
:103EE0003E00626AE069E261606200E009E0626BE4
:103EF000A06AA2626063307818B10948FEF709FD34
:103F000003E021460648FEF718FD04007FF467AF82
:103F100020F003FF7060BDE8F0870000E80100209A
:103F2000D40E002070B5044640680D46002818BF26
:103F3000FFF7F8FF2268002A08BF70BD2946204617
:103F4000BDE87040104789B20DF0B7B989B20DF0E5
:103F500010BA0000022888BF7047054931F81010D8
:103F6000002908BF7047034A52F82000816170475A
:103F7000140000201C000020022888BF704705495B
:103F800031F81010002908BF7047034A52F820008A
:103F900081627047140000201C00002030B50546E7
:103FA00083B048680C4620F0030001AA694621F05E
:103FB000FDFFDDE9001205EBC11000EB8203D86BB9
:103FC00060B164B1C4E90205C46004F10B0C04F1F2
:103FD00008002CF0030C604502D0FEE7FEE7FEE788
:103FE000DC630123286903FA01FC40EA0C00286124
:103FF00005EB810003FA02F241691143416103B00C
:1040000030BDF0B583B04FF0000704460E000197B5
:104010003D4600974DD0084601AB6A46802909D33A
:10402000B0FA80F1C1F11A014FF0010C0CFA01F164
:10403000491E0844194621F0B9FF01980A2838DAC8
:1040400004EB8002009953694FF0FF3202FA01F14C
:10405000194013D1401C216902FA00F0084008BF42
:104060003D4618D0C143491C0840B0FA80F0C0F169
:104070001F0004EB80010190496999B1CA43521CA9
:104080001140B1FA81F1C1F11F0104EBC01000EB46
:1040900081000091C56B65B1686820F00300B042F3
:1040A00001D2FEE7FEE7DDE900322946204623F093
:1040B000C6F903B02846F0BD70B5064682B00D467D
:1040C000084600F02BF8040025D0606810F0010FBE
:1040D0001ED0696831F003011ED020F003006A464B
:1040E00001A921F063FFDDE900322146304623F0CB
:1040F000A6F96968284631F003020ED062682C46A2
:1041000022F00302121D1144416000F007F8046020
:1041100002B0284670BDFEE7FEE7FEE700F10802A8
:10412000406830F00301A1F10400104418BF70474B
:10413000FEE72DE9F04107460C004FF0000008BFF4
:10414000BDE8F08152B31146606810F0010F26D02F
:1041500020F0030001F11002824210D8204600F046
:104160001FF8054626462046FFF7D8FF0660686818
:10417000294640F0020068603846FFF70FFF2046EE
:10418000FFF7CCFF416821F002014160606820F038
:104190000100606004F10800BDE8F081FEE7FEE781
:1041A00070B500F108030A1F9C18426804F1080367
:1041B00022F0030CACEB0102DD1C25F00305121FFD
:1041C000AB4200D0FEE753181B1D9C4500D0FEE714
:1041D000237903F003031A43626022F003020C2ADE
:1041E00000D2FEE7027902F003021143416020464B
:1041F000FFF794FF0460416841F00201416060688C
:1042000040F001006060204670BD0000042807D225
:1042100000EB4001054800EB81004178012901D005
:10422000002070470021417001207047BC0500202C
:10423000074A917AD07A814204BF00207047505CCF
:10424000491CC9B291720A2924BF0021917270479A
:104250009C050020704700002DE9F04182B027F056
:104260004DFE0BF06FF8042027F0DAFE2D482E49A2
:104270000068B0FBF1F12D48016001684FF47A72DB
:1042800051434160FFF752FC00F054F800F0B6F8DB
:104290004FF4E13029F09AFDFCF716FC00F0F4F839
:1042A000DFF88C800121D8F8000001F0BFFB6846E0
:1042B0000AF0C0F801248DF8074000258DF804505D
:1042C000A8F114068DF80640308806F10807009022
:1042D0008DF80550694638680AF0B6F80121D8F81B
:1042E000040001F0A3FB68460AF0A4F88DF807402B
:1042F0008DF804508DF80640708800908DF80550B8
:10430000694678680AF0A0F8308800281CBF396830
:104310008861708800281CBF7968886102B0BDE898
:10432000F08100009000002040420F000C000020AF
:104330002800002030B500242A4883B0642384720A
:10434000C47204732146A0F18002022502EB011021
:10435000038105718472C4720473481CC1B20829B8
:10436000F4D3642006211081D17214730A461E49C9
:10437000034668460B83CA760C770B85062281F8C4
:104380002B2081F82C4064230B8781F83B2081F897
:104390003C400AF04FF80121144801F047FB01218D
:1043A000134801F043FB0121124801F03FFB0120BB
:1043B0008DF807008DF804408DF806408DF8055003
:1043C0000D4D002405EBC40069468088009055F827
:1043D00034000AF039F8601CC4B2082CF2D303B0E0
:1043E00030BD00009C0500201C05002001003000AD
:1043F0000300300004003000B8E9020810B50020C6
:10440000DFF878C084B0034600EB40020CEB820179
:104410004B608B604B700CF82230401CC0B20428FB
:10442000F2D30093019302936846039301F07AFA62
:104430000121134801F0FAFA019842F21071B0FB21
:10444000F1F0104C421E0921204629F01DF90021EF
:10445000204629F038F901221146204629F047F973
:10446000032022F093F801221146362022F04EF864
:104470000121204629F02CF904B010BDBC05002014
:1044800004004000001000400F480E49016000F198
:104490002C01416000F22C4181604FF480618181E8
:1044A000C181002101824182C182018341838182D5
:1044B000C1610162416280F828104FF4E13007F0D9
:1044C0006BBE000000480040EC0500202DE9F047DD
:1044D0000025DFF8C0804FF0010905272E4608EBC4
:1044E00005142846FCF76EFC0028207936D00528F4
:1044F00038BF277147D30A283CBF401C207142D3E4
:10450000A07A38B905EB4500401C84F80A90C0B287
:1045100000F042F82089002835D0E18881420CD291
:10452000481C80B2E080218988422CD105EB4500EF
:10453000C01CC0B200F030F825E0E07A18B3207B50
:10454000401CC0B22073E17A88421CD305EB4500C1
:10455000401C2673C0B200F01FF814E0052888BF85
:1045600027710ED800280DBFA07A401E20710128A7
:1045700007D105EB450000F10200A672C0B200F0C1
:104580000BF8E6802673681CC5B2082DA7D3BDE8DA
:10459000F08700001C0500200549CA7A8854C87AB3
:1045A000401CC0B2C8720A2824BF0020C8727047DD
:1045B0009C05002010B5FFF789FFBDE81040FCF70F
:1045C000FBBA704710B5042805D30B4A0BA112A003
:1045D000FBF72AFFFEE7012282F31088164B00EB5F
:1045E000400203EB8200416081600021417003F8CA
:1045F000221081F3108810BDF8E902082E2E5C2EDF
:104600002E5C2E2E5C6273705C6273705F74696DD9
:1046100065722E63000000004572726F723A206668
:10462000696C652025732C2066756E6374696F6EE6
:1046300020257328290D0A00BC05002038B5044642
:1046400015F066FA054615F09BFA30B1218F204629
:10465000E1861AF02BFF012038BD0121606A1AF0B3
:10466000DDFB90F0010F20461FD012F067FE228F75
:10467000E18E8A420DD02187E08E00906A461C218F
:10468000204613F09FFA012818BF38BD20461AF0C3
:104690000DFF284615F07FFA0428DCD1204619F0DA
:1046A00073FC002114F0C0F8D5E713F07DF8D2E7D1
:1046B00070B513F083FA054619F0C4FC0446284689
:1046C0000DF062FC01462046BDE8704001221FF05B
:1046D000EBBB00002DE9F04F0C4687B0804600216F
:1046E00019F063FB40B3DFF808B400214046BBF883
:1046F00004201AF03FFA81460146002031F91030BB
:10470000A3F5F852FF3A18BF401CF7D16061400092
:1047100017F0E2F960606069400017F0DDF9E060D1
:104720006069002600284CD939F91610F14DA1F521
:10473000F8509A3807D040E007B02046BDE8F04F67
:104740001C2117F0E5BB0027404619F041FB00286B
:104750002FD93946404619F028FB8246E6491AF01F
:1047600064FBD0B950460021BBF810201AF002FAC1
:10477000C0B2012811D150460021BBF80E201AF01A
:10478000F9F9C0B2B04208D1504619F002FCA84273
:1047900003DB504619F0FDFB054640467F1C19F02F
:1047A00017FBB842D5D8002DA4BFE06820F81650FA
:1047B00003DAE168002021F816006069761CB04237
:1047C000B2D80026616935463046002984BF41F6DB
:1047D0009A735A1C19D939F910109142A2BF314469
:1047E000A1F5F8569B3E0CDA994203BFE16831F817
:1047F00010102944D4F80CC01CBF2CF81010294408
:104800000DB26169401C8142E5D84046002141F665
:1048100014021AF0AFF907B2404619F043FB62697F
:10482000C2F1010107FB0100401B01B20029B8BF22
:1048300000214FF0FF334FF0000C6046002A88BF84
:1048400041F69B751CD939F91020AA4209DBA2F563
:10485000F8529B3A11FB02F2B2FBF6F2E76827F836
:1048600010206269401C8242EDD8002B08DBA6EBC9
:104870000C004843B0FBF6F0081AE16821F8130079
:104880000021BBF8002040461AF074F981464046EA
:1048900019F028FB00904946002041F6FF7231F9DB
:1048A0001030934218BF401CF9D12061400017F02E
:1048B00013F920602069400017F00EF9A06020690C
:1048C0000026002844D939F916108A4DA1F5F85070
:1048D0009A3839D10027404619F07AFA00282FD9A2
:1048E0003946404619F061FA824683491AF09DFA2A
:1048F000D0B950460021BBF80A201AF03BF9C0B2EB
:10490000012811D150460021BBF808201AF032F9D5
:10491000C0B2B04208D150461AF014FAA84203DBE4
:1049200050461AF00FFA054640467F1C19F050FA1F
:10493000B842D5D8002DA4BFA06820F8165003DADD
:10494000A168002021F816002069761CB042BAD870
:10495000002521692E462846002984BF41F69A7217
:10496000531C19D939F910109942A2BF2944A1F555
:10497000F8559B3D0CDA914203BFA16831F8101045
:104980003144D4F808C01CBF2CF8101031440EB2CA
:104990002169401C8142E5D84046002141F61502BC
:1049A0001AF0E8F82369009900B2C3F1010200FB94
:1049B0000210801B01B20029B8BF00214FF0FF3C5C
:1049C00000221046002B88BF41F69B761FD939F98B
:1049D0001030B3420CDBA3F5F8529B3A12B211FB34
:1049E00002F3B3FBF5F3D4F808C02CF8103084467A
:1049F0002369401C8342EAD8BCF1000F07DBA81AE8
:104A00004843B0FBF5F0081AA16821F81C0000210A
:104A100041F6150240461AF0ADF80FFA80F9002170
:104A200041F6140240461AF0A5F800B204900021A5
:104A300041F26A4240461AF09DF8C0B201280CBF0C
:104A400001260026002141F2010240461AF092F8A8
:104A50000FFA80FA002141F2040240461AF08AF867
:104A600042F2D17705B2BA4505BFB8F8220010F47A
:104A7000806F4FF0000A4FF0010A404619F032FAF9
:104A8000059040460021BBF802201AF073F8C2B22C
:104A90002369A0682168CDE90030CDE902164B46B4
:104AA0005146059809F07AFD2083BD4205BFB8F84C
:104AB000220010F4007F00250125404619F0F2F98C
:104AC000064640460021BBF806201AF053F8C2B251
:104AD00060694FF0000C6368E1688DE80B102946AF
:104AE0003046049B09F05AFD608307B0BDE8F08FA3
:104AF0009801002001E0FFFF010006002DE9F84FBA
:104B00000022054611461BF0DFFD002141F2320272
:104B100028461AF02FF80446002141F613022846D1
:104B20001AF028F820440FFA80F9002141F6120209
:104B300028461AF01FF8774920440FFA80F80968D0
:104B400000916A462C21284613F03CF8BDF800007D
:104B5000714C404448440FFA80FA284619F038F95D
:104B60000746002141F26A4228461AF003F8C0B213
:104B700001284FF0000B0CD0002F72D9A8686749AC
:104B8000006850F82B6030461AF04FF900287DD1AC
:104B90006AE0002F65D9A8686049006850F82B606A
:104BA00030461AF042F9002846D15D4930461AF0E5
:104BB0003CF9A0B9304619F045FA80B1002141F224
:104BC000690219F0D7FF0004000C08D0B5F91800ED
:104BD000B6F91410401A411C8C4221DD2BE0002153
:104BE00041F20902304619F0C5FF10F0FF0018BF6E
:104BF00003280DD0062818BF082809D04FF000015F
:104C000041F20702304619F0B5FF00B250B113E08F
:104C1000B5F91800B6F91410401A411CA1420ADB7C
:104C20000C4608E0308BB18A401A401C00B2484460
:104C3000A042A8BF044624B20BF1010BBB45AAD386
:104C400041F6FF70C44218BF04EB080000D004B264
:104C500041F6FF70C44218BF5445C4BF2046BDE8AA
:104C6000F88F5046BDE8F88F2D4930461AF0DDF830
:104C7000B0B9304619F0E6F990B1002141F269026D
:104C800019F078FF0004000C0AD000E035E0B6F916
:104C90001800B5F91410401A411C8C4221DD2BE09C
:104CA000002141F20902304619F064FF10F0FF00C4
:104CB00018BF01280DD0042818BF072809D04FF0CD
:104CC000000141F20802304619F054FF00B250B121
:104CD00013E0B6F91800B5F91410401A411CA142AE
:104CE0000ADB0C4608E0308BB18A401A401C00B247
:104CF0004044A042A8BF044624B20BF1010BBB45BF
:104D0000FFF43CAF41F6FF70C44218BF04EB09004A
:104D10009DD19DE780EA020801E0FFFF0100040049
:104D20000100060000B50B88B0F808C083B06344EA
:104D3000ADF800304B88B0F80AC06344ADF80230DB
:104D40008B88B0F808C06344ADF80430C988438943
:104D50001944ADF8061043696946984703B000BD91
:104D600070B5164C6078002808BF70BD144D2868D7
:104D700000281ABFC16D002970BDE168D0F880001D
:104D800000294FF0010102D017F0CAFD01E018F030
:104D900084FA20694FF0010100282868D0F88400C7
:104DA00002D017F0BDFD01E018F077FAD4E9031244
:104DB00004A0FBF739FB0020607070BD7C0300206D
:104DC0000400002053637265656E20757064617421
:104DD00065642066726F6D20544C494E4B3A2041F9
:104DE00069723D25642C204C696768743D25640A0E
:104DF000000000002DE9FF4F074689B0C8781A9CD3
:104E000000F0010015460E46002814BFFC48FD487E
:104E1000079014BFFC48FD4805900CBFFA48FB48BA
:104E200006906088A1884FF0000EA0EB0100D4F836
:104E3000109001B272467046B9F1000F19D9E368BB
:104E40004FF00C0A4FF0080B00EB800C4FF01008ED
:104E500008EB8C0813F8088018F0010F1CD00BEB3E
:104E60008C0C33F80CC0A1EB0C0109B2401C81453D
:104E7000EAD84FF00008B9F1000F51D908EB8803C8
:104E80001020D4F80CC000EB830001901CF8000047
:104E900010F0010F07D03EE00AEB8C0C33F80CC089
:104EA000624412B2E2E791FBF2F90C2000EB8300BE
:104EB00000903CF800004FF0060A00FB09F04FF0AC
:104EC00004090AEB830A09EB83093CF90AA000B242
:104ED0003CF909908245CCBF8346D346D94503DCD3
:104EE0008245CCBF8146D146814505D001984FF01F
:104EF000010AD6464CF800A0D4F80CC0082000EBFC
:104F000083002CF80090E3680098185A101A02B237
:104F1000A1EB090001B2206908F101084045ADD8B4
:104F2000BEF1000F7FF47DAF002141F26A423846A6
:104F300019F020FEC0B2012818BF00200490002004
:104F4000ADF80800ADF80C0003A902A8CDE90001F6
:104F50002089B4F9022003B23078189921F08CFC32
:104F6000F1780498014207D0384618F0BBFFBDF82D
:104F700008100844ADF808002946384618F015FF17
:104F8000804600F06AB9A249404619F04EFF80B150
:104F9000F078C0F3800020B16D1E40F14E8100F02A
:104FA00051B9B8686D1C41688D42C0F2538100F060
:104FB00049B9984800210289404619F0DBFD10F0FC
:104FC000FF0F52D022694FF000094846002A88BFDF
:104FD000E16810D900EB800351F82330434507D135
:104FE00000EB8002082000EB820031F9009002E023
:104FF000401C8242EED8F07810F0010FB8F8220081
:1050000014BF40F4806040F40070A8F822000599B5
:1050100008F11400884748452DD040461AF046FA5A
:10502000B8F81400ADF80000B8F81600ADF80200AA
:10503000B8F81800ADF80400B8F81A00ADF806008A
:10504000079A494608F1140090476A4629214046CC
:1050500012F0B8FD404618F0F5FF4246222112F04A
:10506000B1FD40461AF022FA05E0B8F8220020F41B
:10507000C060A8F8220070784FF0000B01280FD014
:10508000022815D1069908F114008847B4F90010D8
:10509000491C21F00101081A00EBD070401005E016
:1050A000069908F1140088472188081A0FFA80FB36
:1050B000F1780498014208D0059908F11400884756
:1050C000BDF80810081AADF80800002143F20C02E0
:1050D000404619F04FFD0FFA80FA002143F20D020D
:1050E000404619F047FD0FFA80F9404619F02AFEB4
:1050F0000090404618F04DFF01460AF4C040B0F55C
:10510000005F13D12AF4C040B0F5FA6F0EDCB0F5A1
:105110007A7FC8BFC0F57A70009A42433E4880FB50
:1051200002204211A2EBE0700FFA80FA09F4C040AD
:10513000B0F5005F12D129F4C040B0F5FA6F0DDC74
:10514000B0F57A7FC8BFC0F57A704143324880FB22
:1051500001104111A1EBE0700FFA80F9B8F81410BA
:105160001698401A504402B2B8F816101798401A10
:10517000484401B2F07800F00100002814BFBDF9E6
:105180000800584610440FFA80F908BFBDF908B06E
:105190000BEB01000FFA80FA59EA0A001FD04046D3
:1051A0001AF084F9B8F814004844A8F81400B8F8C4
:1051B00018004844A8F81800B8F816005044A8F899
:1051C0001600B8F81A005044A8F81A0040461AF021
:1051D0006DF901235246494640461AF01CFAF1780F
:1051E000049801421AD1059908F1140088471999C9
:1051F0000844BDF80C100844BDF80810084414E039
:10520000E9140108DF140108831401084F14010890
:1052100001000600880100201F85EB51BDF80C102D
:1052200019980844BDF80810081AADF80800F0787D
:10523000C0F3800048B16D1E04D4B868006850F80F
:1052400025800AE04FF0000807E0B8686D1C41684F
:105250008D42F7DA006850F82580B8F1000F1CBFC6
:105260000C9885427FF48FAE0DB0BDE8F08F002919
:1052700008BF70472DE9F04F8BB0044601830068EA
:105280000F46002818BF16F0ABFC07EB47000621BD
:1052900001EB400016F0EAFB206000283DD002211F
:1052A00001EB47010144E160042101EB8701014466
:1052B000C4E9010101210026012F2FD0F800083098
:1052C00016F00AFC00EB87010B1DB90009B200259E
:1052D000C1F10102ADF804208E10ADF80010ADF858
:1052E00002502A46069602950029C0F2E8804FF047
:1052F00003084FF005090DF1180A0DF1080B4FF0E6
:10530000000CBDF90460002E13DCBDF8021008EBA0
:1053100041013144ADF8041019E0FEE7B4220270F7
:10532000E0680680E0684180A06806800BB0BDE8B8
:10533000F08FBDF802E0BDF80010AEEB010E09EBF6
:105340004E0E7644491EADF80460ADF80010BDF86D
:105350000210491C0EB2ADF80260BDF900108E4279
:105360000BDC8E104AF82C6001F003014BF82C1076
:105370000CF1010CBCF1040FC3DBBCF1040F74D1C0
:10538000DDF824C00699614515D120F8121023F8E4
:105390001250DDE9021C6144DDE904C6B4446144F5
:1053A000D4F804C00CF80210D4F804C009010CF8B9
:1053B0000210511C7AE0DDF81CC0614529D020F8AC
:1053C000121023F81250D4F804C002990CF80210FD
:1053D000D4F804C009010CF80210511C069A09B255
:1053E000521E20F8112023F81150DDE9032C6244ED
:1053F000DDF814C00CF1040C6244D4F804C00CF8BD
:105400000120D4F804C012010CF80120491C0AB292
:105410004DE0DDF820C020F81210614523F812504D
:10542000DDE9021C614421D0D4F804C00CF802105C
:10543000D4F804C009010CF80210511C069A09B2F4
:10544000521E20F8112023F81150DDE9042C62448B
:10545000D4F804C008320CF80120D4F804C01201BA
:105460000CF80120491C0AB221E028E0DDF810C048
:105470006144D4F804C00CF80210D4F804C0090147
:105480000CF80210511C069A09B2521E20F8112085
:1054900023F81150059AD4F804C00C320CF80120FE
:1054A000D4F804C012010CF80120491C0AB2BDF95D
:1054B0000210BDF900C06D1C61457FF720AF40F2BE
:1054C000D32117FB01FC00EB42054FEAAC2135F973
:1054D000025C8D4205D103EB420535F9025C8D4239
:1054E0001FD0ACEB812CBCF5007F04DC0CFB0CFC6A
:1054F0004CF3CF3C07E0CCF5806C0CFB0CFC4CF380
:10550000CF3CCCF10F0C20F8121023F81210616878
:1055100001F802C061684FEA0C1C01F802C0511C7E
:105520000AB2911E11D433F811C020F812C030F81D
:1055300011C023F812C0D4F804C01CF801500CF8B4
:105540000250521C12B2491EEDD5E6684FF0000C15
:105550006146A6F800C0002A1FDDE56825F81C108A
:10556000A66830F8115026F81C5033F911506545E3
:105570000DD191420BDAA76830F9116037F81C5051
:10558000B542A8BF354627F81C50491CEDE70CF181
:10559000010C0FFA8CFC9142DFDB16F00FFB0BB015
:1055A000BDE8F08F07B582B0022A9EBFBDF80C009F
:1055B00005B000BDBDF80C30BDF80800D90A01EBFC
:1055C000D0211F2928BF1F2161F3CF20C3F345112C
:1055D000C0F3451C6144ADF808003F2928BF3F21B6
:1055E00061F34A1003F01F0100F01F031944ADF8E6
:1055F00008001F2928BF1F2161F30400ADF808002F
:10560000FF2A02BF80B205B000BDDDE902010EF045
:10561000C7F80090BDF8000005B000BD07B582B026
:10562000022A9EBFBDF80C0005B000BDBDF80810F1
:10563000BDF80C00CB0A4FEAD02C13FB0CF35B092E
:1056400063F3CF2101F01F0300F01F0C13FB0CF3D9
:105650005B0963F30401C1F34513C0F3451013FB69
:1056600000F0800960F34A11ADF80810FF2A02BF6C
:1056700088B205B000BDDDE902010EF091F800909E
:10568000BDF8000005B000BD07B582B0022A9EBF7C
:10569000BDF80C0005B000BDBDF80C30BDF8080029
:1056A000D90AA1EBD0210029D8BF002161F3CF2076
:1056B000C3F34511C0F3451CA1EB0C01ADF8080084
:1056C0000029D8BF002161F34A1003F01F0100F048
:1056D0001F03C91AADF808000029D8BF002161F3E3
:1056E0000400ADF80800FF2A02BF80B205B000BD7B
:1056F000DDE902010EF054F80090BDF8000005B09D
:1057000000BD10B50C46FBF7D3FA002808BF10BD4A
:10571000012282F31088438B002282F31088ABB100
:10572000038B8168C95C2170012181F31088018B92
:10573000491C89B20183C389994228BF0283418BE6
:10574000491E4183002080F310880122104610BDBD
:10575000F8B515460E46FBF7ABFA040008BFF8BDD6
:10576000E069002818BF80470020002D88BF002274
:1057700028D9012181F31088A18AADF800100021F9
:1057800081F31088A389BDF800108B4220D9315CC9
:10579000B4F810C0636803F80C10012181F310887D
:1057A000218A491C8BB22382A189994298BF228207
:1057B000A18A491CA182002181F31088401C80B27B
:1057C000A842D6D32068C16841F04001C160F8BD4D
:1057D000BDF800108B42CCD12368D96811F0800F3E
:1057E000C7D1D96841F08001D960C2E713B5012261
:1057F00001A9FFF7ADFF02B010BDF8B5044612F0E5
:10580000DDF90646204612F09DF90446304618F0B0
:1058100019FC05462B2C33D00A2C18BFF8BD69465D
:10582000304618F081FC304618F05CFB044600213D
:1058300041F26A42284619F09DF9C0B20128BDF92B
:10584000000004EBD47114BF00EB6100C0EB6100F9
:1058500090FBF4F001B20029B8BF00210024688D4C
:10586000884218BF0124012228461EF01DFB002C8F
:1058700008BFF8BD00221C21284612F0A3F9F8BD8C
:10588000698DBDE8F84000221EF00EBB02490A688F
:1058900060F307120A6070470838024002490A683C
:1058A00060F38C220A6070470838024002490A6897
:1058B00060F34F320A6070470838024004490128FB
:1058C00008680CBF40F0300020F0300008607047DE
:1058D000A4380240104A052828BF7047DFE800F0CE
:1058E00003070C101600106861F3000002E0106856
:1058F00061F3104010607047106861F31860F9E7B9
:105900000648026861F3000202607047044A1068AA
:1059100061F30000EEE700000038024070380240FA
:105920007438024070B5234D044628682249C0F3FC
:10593000810020B101280ED0022826D00BE01F489C
:10594000026812F4804F1EBF006810F4805F1C488C
:1059500001D0206000E0216028681A49C0F30310DC
:10596000085C216821FA00F060602968164AC1F3DA
:105970008221515C20FA01F1E16029680832C1F30B
:105980004231515CC840A06070BD10480268026896
:10599000C2F388130268006802F00F020C4EC0F3D5
:1059A0000240305C12FB00F2A1FB03010023FAF776
:1059B000C4FCCEE70838024000127A00A03802404A
:1059C000006CDC023EEA02082EEA020804380240BB
:1059D00028EA020800F01F020123002103FA02F264
:1059E000000C00F1804000F50C30D0F8000832EADD
:1059F000000008BF01210846704700000A4A002045
:105A00004FF40031D2F8003831EA030304D0B0F586
:105A1000405F38BF401CF5D3D2F8000831EA0000DF
:105A200014BF00200120704700300240012300F025
:105A30001F0203FA02F2000C00F1804000F50C3066
:105A40000129D0F800180CBF11439143C0F8001889
:105A50007047012300F01F0203FA02F2000C00F16C
:105A6000804000F50C300129D0F800180CBF11431C
:105A70009143C0F80018704710B438B9DFF844C03B
:105A8000DCF8004044F48054CCF80040DFF838C023
:105A9000DCF8004060F39654CCF80040DCF80000DD
:105AA00061F38E10CCF80000DCF8000062F3030014
:105AB000CCF80000DCF8000063F31240CCF80000E2
:105AC00010BC7047A03802400438024011480168F9
:105AD00041F001010160016811F0020FFBD00E4995
